S01B00006763705F696F745F636F72655F73616D6735352E73726563AB
S21440000078600020C9674000C5674000C56740006B
S214400010C5674000C5674000C56740000000000057
S214400020000000000000000000000000C56740001F
S214400030C567400000000000C5674000C567400037
S214400040C5674000C5674000C5674000C5674000BB
S214400050C5674000C5674000C5674000C5674000AB
S214400060C5674000C567400000000000E945400005
S214400070FD454000C5674000C5674000C567400075
S214400080C5674000C5674000C5674000C56740007B
S214400090C5674000C5674000C567400019A34000DB
S2144000A0C5674000C5674000C5674000C56740005B
S2144000B0C5674000C5674000C567400000000000B7
S2144000C000000000000000000000000000000000EB
S2144000D000000000000000000000000000000000DB
S2144000E000000000000000000000000000000000CB
S2144000F0000000000000000000000000C56740004F
S21440010005554000C56740000000000000000000A4
S214400110000000000000000000000000000000009A
S214400120000000000000000000000000000000008A
S214400130000000000000000000000000000000007A
S214400140000000000000000010B5054C237833B9CD
S214400150044B13B10448AFF300800123237010BD55
S214400160480C002000000000C87841000C4B43B10A
S2144001700C480D4910B5AFF300800C48036823B90E
S21440018010BD0A48036833B97047094B002BF7D0B7
S214400190BDE810401847064B002BF5D0184700BF67
S2144001A000000000C87841004C0C0020C878410090
S2144001B0000000000B2800D07047B1F1807FFBD1D3
S2144001C008B5024B1B6803B1984708BD640C002075
S2144001D058B170B5441E42F27C16044D3046A847CE
S2144001E0013CB4F1FF3FF9D170BD704701000020DB
S2144001F0F8B5074C4FF0005767634FF0806565636E
S2144002000120044EB04727630A20B0472563F8BD57
S214400210000E0E40D101400010B500220F4B1A6070
S2144002200B200F4CA0470C20A0470E4B4FF080628F
S2144002301A61C3F8A0201A634FF000521A61C3F83F
S214400240A0201A63084B1B6813F0010F1CBF064B17
S2144002501B68064B9847002010BD00BF640C00206A
S21440026071474000000E0E4010E000E0F1014000F3
S21440027030B583B0164B18600B20164B98474FF09E
S21440028020511820144B9847144C01224FF080718F
S2144002902046134B9847134B009351234FF08072E0
S2144002A00B212046104DA8472046104B98474FF04C
S2144002B0807120460E4B98474FF400620D4B1A60F3
S2144002C000220B2120460C4B984703B030BD00BFA0
S2144002D0640C00207147400059444000000E0E4018
S2144002E059434000B5014000794540005144400024
S2144002F04944400000E100E01146400010B528B9EE
S2144003004FF080710648074B984710BD044C204676
S214400310054B98474FF080712046044B984710BDD8
S214400320000E0E404D4440005144400049444000B9
S21440033038B54F4B4FF480541C66C3F890405C650C
S2144003405C62C3F880401A6F22F480521A675A6F74
S21440035022F480525A674FF400501866C3F8900053
S21440036058655862C3F880001A6F22F400521A6724
S2144003705A6F22F400525A674FF480411966C3F808
S214400380901059655962C3F880101A6F22F4804263
S2144003901A675A6F22F480425A674FF400621A6610
S2144003A0C3F890205A655A62C3F880201D6F25F422
S2144003B000651D675D6F25F400655D675C6058608D
S2144003C059605A602B490B601A632B4B1B6913F418
S2144003D0803F43D0284C2046284B98470223236032
S2144003E080232360636843F001036360636843F0DF
S2144003F01003636000212046214B98470022114697
S2144004002046204B98470122002120461E4B984705
S2144004100022114620461D4B98471D491D481E4B3D
S2144004209847C2B2002120461C4B984700231A46E4
S214400430194620461A4DA8470123236019481A4BEF
S214400440186040F20221194B9847194B9847094BC0
S2144004501B684FF400621A63002038BD154C2046D6
S214400460154B984702212046144B9847B2E700BFE9
S214400470000E0E40142F002000840040294B400000
S214400480C14B4000D74B4000F54B4000134C40005A
S2144004900000270780D54302274C40003D4C4000D3
S2144004A0654C400000850040680C002049434000F1
S2144004B0F10140000080004069414000F5424000A4
S2144004C010B584B003283ED108684A680B89002AD4
S2144004D027D0002B34D00090029201930393204CF7
S2144004E00022694620681F4B9847002202A92068D0
S2144004F01D4B98471D4B18684FF4006343632168B3
S21440050040F201130B621A4A136913F0400FFBD0F6
S2144005104FF40063036340F202230B62002004B0F2
S21440052010BD38B14BB10090019303934FF4800354
S2144005300293D4E76FF00E00F1E76FF00E00EEE79F
S2144005406FF00E00EBE7DF220A490B480B4CA04742
S2144005500B48A0470B48A0474FF0FF30DFE700BFEF
S214400560680C00201943400031434000142F0020FF
S21440057000840040AC5C4100BC5C41002DD440008F
S214400580D05C4100E85C410002220E4B1A6003F545
S214400590582303F520634FF400525A61C3F8A02055
S2144005A04FF480525A61C3F8A0204FF480425A61FB
S2144005B0C3F8A0204FF400625A61C3F8A020002080
S2144005C0704700BF008400403AB10139821811F8E4
S2144005D0013F00F8013B9042F9D1704722B18218A2
S2144005E000F8011B9042FBD17047037843B10023CB
S2144005F001339BB210F8012F002AF9D118467047F4
S2144006000023FBE7024AD3780133DBB2D37070474E
S214400610182F00207047000000B583B000220D4B15
S2144006209A7001200C4B984701A941F270000B4B81
S2144006309847034618B1184603B05DF804FB019985
S21440064041F00201019141F27000054B9847034684
S214400650F1E700BF182F0020FD024000811B40003C
S2144006608D1B400008B50C4B9B789BB90A4B5B78BA
S21440067013B9094B1B783BB9074A53780133DBB2B1
S21440068053700023184608BD044B9847034600287D
S214400690F2D0F7E70023F5E7182F0020F9174000BF
S2144006A0044B5B7823B1034A5378013BDBB253706B
S2144006B000207047182F002008B50A4B5B7823B1FE
S2144006C0084A5378013BDBB25370064B5B783BB924
S2144006D0044B1B780BB9002008BD034B984708BD58
S2144006E0002008BD182F0020891740002DE9F04F44
S2144006F087B00646894690461F46BDF84450BDF82A
S214400700484001F07F038DF815308DF8140008231B
S214400710ADF81630109B002B45D0BDF8163015FAB4
S21440072083F323449BB2ADF816306B4B9847824612
S214400730002840F0C68000230393ADF806300293AD
S214400740029B1E430296029B43EA09230293BDF88E
S2144007501620029B43EA02430293029941F28C0020
S2144007605E4B98478246002859D100230293029B4D
S21440077043F002030293029941F27800574B9847A0
S214400780824600284BD100230393ADF80630BDF8CF
S21440079006309BB2B3F57A7F47D2514EDFF86C9164
S2144007A0DFF86CB119E0BDF8163017FA83F39BB248
S2144007B0ADF81630B9E70120C847029B13F0020F88
S2144007C025D0BDF8063001339BB2ADF80630BDF8F3
S2144007D006309BB2B3F57A7F27D202A941F2780061
S2144007E0B04710BBBDF806309BB2B3F5FA7FE4D3F2
S2144007F0BDF806309BB2B3F5FA7FDCD85846DFF832
S21440080004A1D0473748D0473748D047D3E703A955
S2144008103648334B9847824638B100230393344BCF
S2144008209847504607B0BDE8F08F039B002B43D057
S214400830039B0493BDF816309BB2ADF8163004986F
S214400840082205A92B4B984782460028E7D1049BEF
S21440085008330493B8F1000F0AD004983A4641464C
S214400860244B984782460028D9D1049B3B440493A6
S214400870109B73B1049BE41B1C44049404982A46C2
S21440088010991C4B984782460028C8D1049B1D44AB
S2144008900495039B9B000293029B43F00203029342
S2144008A0029941F26C000D4B984782460028B6D11B
S2144008B0114B98478246B4E70F4B98476FF0020AB1
S2144008C0AFE74FF4CB720D490D480E4CA0470E488B
S2144008D0A0470548A047A4E7650640008D1B40009A
S2144008E0811B4000E85F4100E85C410000041500C1
S2144008F0A1064000F51B4000B9064000EC5C4100F4
S214400900BC5C41002DD44000FC5F4100D10140005A
S214400910DC5F41002DE9F04387B0DFF8DC82A44F6E
S214400920A44EDFF8D89284E00598C8F80400C8F8CA
S2144009300840042204A9A04B9847BDF812309BB249
S214400940ADF812300546002839D1BDF812309BB2BA
S2144009509C4205D0BDF812309BB2E31A042B3CDC17
S2144009609DF81030DBB2012B50D09DF81030DBB232
S214400970022B75D09DF81030DBB2042B00F08A8035
S2144009809DF81030DBB2062B00F09E809DF81030AC
S214400990DBB2072B00F0B2809DF81030DBB2052B9F
S2144009A000F0C68040F20F2249463046834CA047AE
S2144009B08348A0478348A0476FF005052AE140F2E8
S2144009C0D112494630467D4CA0477F48A0477D48D7
S2144009D0A04701207D4B98471CE14FF4ED724946F5
S2144009E03046764DA847BDF812209DF810309DF849
S2144009F01110009192B221467548A8477148A84701
S214400A000120724B98476FF0050503E1D8F80C308B
S214400A10DBB1D8F80C309DF81100BDF8121008393B
S214400A20059A083289B2984798F80230002B40F071
S214400A30908098F80330002B00F0308198F803300F
S214400A40013BDBB288F80330EFE04FF4F3724946DF
S214400A5030465A4CA0475F48A0475A48A047E3E76D
S214400A60D8F810305BB1D8F810309DF81100BDF8BA
S214400A7012100839059A083289B29847D4E74FF4DD
S214400A80F772494630464D4CA0475348A0474D481C
S214400A90A047C9E7D8F814305BB1D8F814309DF8B1
S214400AA01100BDF812100839059A083289B29847E5
S214400AB0BAE74FF4FB7249463046404CA047474899
S214400AC0A0474048A047AFE7D8F820305BB1D8F8F9
S214400AD020309DF81100BDF812100839059A0832EA
S214400AE089B29847A0E740F2FF1249463046334C59
S214400AF0A0473B48A0473348A04795E7D8F818306A
S214400B005BB1D8F818309DF81100BDF812100839BE
S214400B10059A083289B2984786E740F20622494647
S214400B203046264CA0472F48A0472648A0477BE79C
S214400B30D8F82430002B3FF477AFD8F824309DF80F
S214400B401100BDF812100839059A083289B2984744
S214400B506AE740F2152249463046184CA0479DF8B1
S214400B6010109DF811202048A0471648A0471F4B5C
S214400B709847054600284DD15BE74FF40772494633
S214400B8030460E4CA0471A48A0470E48A0476FF084
S214400B9001053FE04FF4097249463046074CA047EE
S214400BA003991448A0470748A0476FF00B0531E06B
S214400BB0811B4000BC5C4100991B40002DD4400086
S214400BC05C5E4100E85C4100545D4100FD0240002F
S214400BD06C5D4100AC5D4100D05D4100F45D41007C
S214400BE0145E4100385E4100745E410019064000C4
S214400BF0A05E4100B45E4100182F0020F85C410022
S214400C0040F22D2249463046264CA0472648A0476B
S214400C102648A04740F24A2225493046214CA04764
S214400C2029462448A0472148A04703A941F270001E
S214400C30B84705460028E3D1039B13F0010FA9D01F
S214400C401D4B9847039921F00101039141F2700032
S214400C501A4B984705460028DCD1012388F8023015
S214400C60039CC4F38B04002C87D006A9002341F8CC
S214400C70043D41F28400B847054600283FF454AE90
S214400C8040F2C71249463046064CA0470C48A0479B
S214400C900648A0470120084B9847BBE7002007B00E
S214400CA0BDE8F0832DD44000D05E4100E85C4100B2
S214400CB0005D4100F45E4100FD0240008D1B400097
S214400CC02C5D410070B51D4618B11446034601B16F
S214400CD092B925B1284B98470346184670BD40F256
S214400CE06B2226492648274CA0472748A047274836
S214400CF0A0476FF00B03F0E7254A926894421DD850
S214400D00234A5268904229D306192148426880688F
S214400D100244964222D8224618461E4B984703461F
S214400D200028DAD11A494A6889680A44964201D0AE
S214400D30002DD2D0104B98470346CEE740F27322A0
S214400D400E490F480F4DA847114B9A682146124846
S214400D50A8470E48A8476FF00B03BEE740F279223B
S214400D6006490748074CA0470C48A0470748A047F5
S214400D706FF00B03B1E700BF19064000105D41005D
S214400D80BC5C41002DD44000245F4100E85C41003B
S214400D90182F0020991B4000445F41008C5F4100A3
S214400DA038B5431E062B21D8DFE803F00804100CA4
S214400DB01C141800154B1961002038BD134BD96020
S214400DC0002038BD114B5961002038BD0F4BD9610A
S214400DD0002038BD0D4B1962002038BD0B4B996181
S214400DE0002038BD094B5962002038BD044640F209
S214400DF0B12207490748084DA84721460748A84753
S214400E000748A8476FF00B0038BD00BF182F0020DA
S214400E101C5D4100BC5C41002DD44000D05F4100C9
S214400E20E85C410008B5282200210648064B984752
S214400E300648074B984707490320074B984700202A
S214400E4008BD00BF182F0020DD0540000506400005
S214400E507102400015064000A10D400008B5014B48
S214400E60984708BDC91A400030B59DB014460128C1
S214400E7005D0062817D0002535BB1DB030BD002351
S214400E80702269462046154DA84705460028F3D1EE
S214400E90134B1B68002BEFD07034124A146069461F
S214400EA001209847E8E700230422694620460B4C79
S214400EB0A04705460028DFD1094B1B68002BDBD036
S214400EC0694606209847D7E76B2207490748084CEB
S214400ED0A0470848A0470848A047CEE7C50C4000B2
S214400EE06C0C0020700C00201C604100BC5C410073
S214400EF02DD4400038604100E85C410010B586B013
S214400F0006AA42F8040D002302930193009304239B
S214400F1005210846014CA04706B010BDED0640002E
S214400F2038B50C4B186000220B4B1A600B49052055
S214400F300B4B9847044608B9204638BD40F22F125E
S214400F4008490948094DA84721460948A84709487D
S214400F50A847F1E76C0C0020700C0020690E40009A
S214400F60A10D400028604100BC5C41002DD44000EB
S214400F705C604100E85C410030B59FB015462C28C7
S214400F802ED004461B283BD0062849D00E2825D014
S214400F90322855D02F2863D0342876D0112800F038
S214400FA09380132800F0A880042800F0B7806528B6
S214400FB000F0C680092800F0D5802A2800F0E4809A
S214400FC0202800F0F3804FF4957286498648874D76
S214400FD0A84721468648A8478648A8471FB030BD40
S214400FE00023042203A92846834CA0470028F5D1B5
S214400FF0824B1B68002BF1D003A92C209847EDE7C5
S2144010000023082203A928467B4CA0470028E5D1A8
S2144010107A4B1B68002BE1D003A91B209847DDE7DD
S2144010200123302203A92846734CA0470028D5D177
S214401030724B1B68002BD1D003A906209847CDE7FA
S2144010400023142203A928466B4CA0470028C5D18C
S2144010506A4B1B68002BC1D003A932209847BDE7D6
S2144010606422002103A8664B98470023642203A904
S2144010702846614CA0470028B0D1604B1B68002B27
S214401080ACD003A92F209847A8E70023042203A941
S2144010902846594CA0470028A0D15A48534CA04750
S2144010A00399CBB20093C1F30723C1F30742090E5D
S2144010B05548A0474F48A047504B1B68002B8DD043
S2144010C000213420984789E70023504A13700422B1
S2144010D003A92846484CA04700287FF47FAF9DF8D8
S2144010E00C204B4B1A70454B1B68002B3FF476AFD9
S2144010F003A91120984771E700232C2203A928460C
S2144011003D4CA04700287FF469AF3C4B1B68002B42
S2144011103FF464AF03A9132098475FE700230422F7
S2144011201CA92846344CA04700287FF457AF334BC1
S2144011301B68002B3FF452AF1CA9042098474DE78C
S214401140002304221CA928462B4CA04700287FF4E5
S21440115045AF2A4B1B68002B3FF440AF1CA96520C7
S21440116098473BE70123642203A92846224CA04720
S21440117000287FF433AF214B1B68002B3FF42EAF83
S21440118003A90920984729E70123042203A92846F2
S214401190194CA04700287FF421AF184B1B68002B42
S2144011A03FF41CAF03A92A20984717E700230822DC
S2144011B003A92846104CA04700287FF40FAF012310
S2144011C0BDF81020039905F10800A04700287FF4D9
S2144011D005AF0A4B1B68002B3FF400AF03A9202045
S2144011E09847FBE684604100BC5C41002DD440003B
S2144011F0D4604100E85C4100C50C4000740C0020FF
S214401200DD054000DC5F4100B4604100790C002001
S214401210780C0020F0B58FB001238DF80F300028F1
S21440122065D00268334B1A600022334B1A700DF1BA
S2144012300F00324B9847054610B128460FB0F0BD18
S2144012402F4B9847054600284DD12E4901202E4B5E
S214401250984704A82D4B984705462D4F38462D4CA9
S214401260A0479DF816309DF815209DF81410BDF83F
S214401270300000902848A047284E3046A0473846C1
S214401280A0470DF126020DF11A012548A047304629
S214401290A0473846A0479DF819309DF818209DF87D
S2144012A017102048A0473046A0473846A04702239C
S2144012B0052213211C48A0473046A0473846A04781
S2144012C01A4A1B491B48A0473046A04715F10D0F48
S2144012D0B3D140F2ED1218491848A0471848A04725
S2144012E03046A047A9E70020164B9847A5E76FF081
S2144012F00B05A2E7740C0020790C0020211D40004D
S214401300250E4000790F4000A10D4000511C4000C2
S214401310DC5F41002DD4400094614100E85C410010
S214401320BC614100D8614100FC614100146241004B
S214401330206241002C62410090604100BC5C41004C
S21440134044624100ED1D400008B5014B984708BD7A
S214401350150940002DE9F041A0B080460D461446E0
S2144013601F46BDF89860012A03D0002B39D0022AC8
S21440137044D06B1EDBB21F2B77D8731E9BB20D2B4F
S21440138001D9FF2E7ED12A4641460DF15A00774BB1
S214401390984720AB1D44002305F8263CADF858601E
S2144013A09DF89C30003318BF01238DF87B308DF8B4
S2144013B05540032C73D0022C00F0AA80042C00F079
S2144013C0C180012C40F0C480002302930193009317
S2144013D06C2305AA28210120654CA04720B0BDE813
S2144013E0F08140F21B2263496348644CA04764483E
S2144013F0A0476448A0476FF00B00EFE71846624BE3
S21440140098474028B5D13B78A3F13002D2B2362A6D
S2144014101ED8A3F13A02D2B2062A19D9473BDBB20C
S214401420192B15D9394607F13F0011F8013FA3F1B2
S2144014303002D2B2362A0BD8A3F13A02D2B2062AEA
S21440144006D9473BDBB2192B02D98142EDD190E752
S21440145040F2272247494848484CA0474B48A047B7
S2144014604848A0476FF00B00B8E740F231224149A8
S2144014704148424CA0474648A0474248A0476FF0E4
S2144014800B00ABE740F23A223A493B483B4CA04778
S2144014904048A0473B48A0476FF00B009EE73B788C
S2144014A0013BDBB28DF81430032B16D87A78531EE6
S2144014B08DF8153002F0EF030B2B1DD04FF416724B
S2144014C02C492D482D4CA0479DF815103248A04772
S2144014D02C48A0476FF00B0080E740F25122254988
S2144014E02548264CA0479DF814102C48A047254870
S2144014F0A0476FF00B0071E7B91C0DF116001B4BAF
S21440150098477B7820AA1344002203F86A2C5BE7AE
S21440151038461D4B9847431E9BB23F2B05D8421C6E
S214401520394605A8114B98474EE740F267221149C5
S2144015301148124CA0471A48A0471248A0476FF0DF
S2144015400B004BE73E22394605A8084B98473BE739
S21440155040F2772207490848084CA0471148A04760
S2144015600848A0476FF00B0038E700BFC9054000A9
S214401570ED064000A0604100BC5C41002DD4400018
S214401580E8604100E85C4100EB054000FC6041003B
S2144015900C61410020614100486141002C614100DE
S2144015A0646141008061410010B582B0002401941E
S2144015B0BDF810400094024CA04702B010BD00BFDA
S2144015C05513400038B50546064B9847044608B1C3
S2144015D0204638BD2846044B98470446034B984758
S2144015E0F6E700BF65064000511C4000B9064000C3
S2144015F010B584B0002202920192009213461A213E
S2144016000120024CA04704B010BD00BFED064000CC
S21440161010B584B000284FF000020292019200926A
S214401620134614BF0C210D210120024CA04704B0E4
S21440163010BD00BFED064000F0B583B040F48075A5
S2144016404FF4A554084F094E29462046B84702A9EC
S214401650002341F8043D2046B0470028F4D1019BC2
S2144016609D42F1D103B0F0BD8D1B4000811B400070
S21440167000B583B002A9002341F8043D41F208407A
S214401680124B9847034618B1184603B05DF804FB62
S214401690019941F48071019141F208400C4B984702
S2144016A003460028F0D101A94FF4D050074B984785
S2144016B003460028E8D1019941F4803101914FF466
S2144016C0D050034B98470346DEE700BF811B4000DF
S2144016D08D1B400010B582B0254B1C6824B1244BAE
S2144016E01C68204602B010BD19464FF48050214B6E
S2144016F0984718B100221E4B1A60F2E701A941F242
S214401700F4301C4B984718B10022194B1A60E8E792
S214401710174B1B68184A93420DD0184A934211D073
S214401720174A934218D0124A136823F4702343F49E
S214401730A0231360D3E7019B012BF4D001320C4B5E
S2144017401A60F0E7019B032BEDD0042B0CBF01324F
S2144017500C4A074B1A60E6E705494FF46C10054BF8
S21440176098470028DFD00022014B1A60B9E700BF37
S2144017707C0C0020811B4000A0021000B00210002C
S214401780F0001000B202100030B583B01025184C9F
S21440179001A92846A0470346F8B9019B13F0010F5C
S2144017A0F6D101A90120124B98470346A8B90199E2
S2144017B011F0020F07D021F00201019101200D4BDC
S2144017C09847034648B901A90B20094B984703465A
S2144017D018B9019911F0010F02D1184603B030BD77
S2144017E021F0010101910B20024B98470346F4E794
S2144017F0811B40008D1B4000F0B583B00023019351
S214401800009301A90B20294B98470446002830D165
S214401810019911F0010F06D141F001010B20244B34
S2144018209847044628BB01A90120204B9847044608
S214401830F8B9019911F0020F1ED005251B4E1D4F19
S21440184069460F20B0470446F8B9009B13F0040FD2
S21440185028D10220B847013DF2D14FF4AF72164965
S2144018601648174CA0471748A0471748A0476FF0A0
S2144018700304204603B0F0BD41F0020101200C4BAA
S214401880984704460028D8D0F3E74FF4AA720A498E
S2144018900A480B4DA847009A21460C48A8470A48D4
S2144018A0A847E6E70A4B9847E3E700BF811B40009E
S2144018B08D1B4000D101400060624100BC5C41008D
S2144018C02DD44000B8624100E85C4100A06241006F
S2144018D0691B4000F8B5074641F214052D4C2E4EC4
S2144018E02846A047002802DB0120B047F8E72B48EF
S2144018F0284B984710F0010F09D1274E254D284C0C
S2144019000120B0474FF00C10A847A042F8D1022F54
S21440191024D0032F2DD0042F35D0224941F28C00FD
S214401920214B98470024214B9847C0F30B00B0F555
S214401930687F2CBF44F0020020461D4B98471D4848
S2144019401D4CA04717491D48A0471D48A0471D49A4
S2144019504FF00C10144B98470020F8BD1A491B480E
S214401960114CA0474FF4801141F28C00A047002450
S214401970D9E7154915480C4CA047002141F28C0088
S214401980A0470024CFE7074941F28C00064B984712
S2144019908024C8E7751B4000D1014000BC07020008
S2144019A09ED0AD10521352138D1B4000D5164000EA
S2144019B039164000DC5F41002DD4400014634100DE
S2144019C0E85C4100612F52EF7DD51C3CAC0702001D
S2144019D0F0B583B041F28C030193184B0093023864
S2144019E0C0B2012811D94FF0FF3400200227144E10
S2144019F0144D009B984212D03846B0470198A847ED
S214401A00013CF6D16FF004000EE00F4B0193A3F1BA
S214401A102253A3F51113A3F2E9530093E3E7009A88
S214401A20064B9A4202D0002003B0F0BD002141F29E
S214401A308C00064B98470020F6E700BF3626530238
S214401A40D1014000751B4000AC0702008D1B4000D2
S214401A5030B583B002A9002341F8043D4FF4A050AE
S214401A60124B9847A0B9019921F4806101914FF437
S214401A70A0500F4B98470446A8B140F20B220D49A0
S214401A800D480E4DA8470E48A8470E48A8470AE0FE
S214401A90044640F2052207490748084DA84708482B
S214401AA0A8470848A847204603B030BD811B4000E1
S214401AB08D1B40006C624100BC5C41002DD4400050
S214401AC084624100E85C410070B582B005460E462F
S214401AD001A941F22C40164B984770B9CEB1019BF4
S214401AE023EA05050195019941F22C40114B984790
S214401AF0044690B9204602B070BD04464FF41472B6
S214401B000D490E480E4DA8470E48A8470E48A84710
S214401B10F0E7019B1D430195E5E740F25A2206494E
S214401B200648074DA8470948A8470748A847E1E799
S214401B30811B40008D1B400078624100BC5C410028
S214401B402DD44000D4624100E85C4100F46241007C
S214401B5008B5014B984708BD3103400008B5014B16
S214401B60984708BD8905400008B5014B984708BD11
S214401B705924400008B5014B984708BD8D244000C5
S214401B8008B5014B984708BDA524400008B5014B51
S214401B90984708BDBD2440002DE9F04707468946D2
S214401BA01546124BB3F80080A8F108081FFA88F8CB
S214401BB0424519D944460026DFF834A0424609EB90
S214401BC006013846D047034658B92D1B26442744BD
S214401BD0A542F3D8AAB209EB06013846044B98470B
S214401BE003461846BDE8F0870026F3E79400002039
S214401BF0E92540002DE9F047074689461546124B31
S214401C00B3F80080A8F108081FFA88F8424519D9A9
S214401C1044460026DFF834A0424609EB0601384623
S214401C20D047034658B92D1B26442744A542F3D82F
S214401C30AAB209EB06013846044B984703461846B5
S214401C40BDE8F0870026F3E794000020092740000F
S214401C5030B585B00023039301930293002843D008
S214401C600446282219462A4B984703A929482A4B56
S214401C7098470346002838D10398002838D00822D1
S214401C8001A940F44030254B9847034668BBBDF851
S214401C900800039078B32822214640F440301F4B7A
S214401CA09847034608BB2179A27902F00F0242EA20
S214401CB0012260790001C0B2E579617A01F00F0136
S214401CC041EA0521247A2401E4B22143024315D097
S214401CD0B9B141F25230814216D841F251318A426E
S214401CE098BF6FF00C0300E00023184605B030BDE7
S214401CF06FF00B03F9E76FF00B03F6E76FF00B039B
S214401D00F3E76FF00B03F0E76FF00C03EDE700BF6F
S214401D10DD05400008000C00811B4000991B400078
S214401D2038B5002837D00478631EDBB2042B28BFB2
S214401D30012400201E4B9847054600282DD11D48FB
S214401D401D4DA8471D4B984701461D48A8471D48AE
S214401D50A8471D4B984720461C4B98470546B0B9A8
S214401D6020461B4B9847054688B9023CE4B2012CF6
S214401D700FD9184B9847054658B140F255121649A8
S214401D8016480D4CA0471648A0470E48A047154B8E
S214401D909847284638BD0124CBE740F227120E4923
S214401DA00E48054CA0471048A0470648A047F0E715
S214401DB0511B4000DC5F41002DD44000D51640004A
S214401DC0E4634100E85C4100D5244000D51840005B
S214401DD0D1194000711640002C634100BC5C4100A4
S214401DE0A86341005D1B4000C863410038B5194BED
S214401DF0984758B90020184B9847044698B9174B4F
S214401E0098470446D0B9164B98470AE004464FF424
S214401E10B67214491448154DA8471548A8471548A2
S214401E20A847204638BD40F273120E490E480F4D63
S214401E30A8471148A8470F48A847F2E740F279124A
S214401E4008490948094DA8470C48A8470948A847E3
S214401E50E7E700BF511A4000C53340005D1B400015
S214401E608124400038634100BC5C41002DD44000D2
S214401E7048634100E85C4100686341008C63410070
S214401E8000B585B0019000230293ADF80C1001A96F
S214401E900320024B984705B05DF804FBC1044000A0
S214401EA070B584B09DF820408DF80400C1380E28E7
S214401EB000F2A280DFE800F0454566192A33545404
S214401EC07F08A0A0A0A03C000B0C8DF805300B0AA4
S214401ED08DF806308DF807100521554B1B78002BE2
S214401EE000F08C800139C9B29AE0C1F3072344B9A7
S214401EF08DF805308DF8061000238DF80730052143
S214401F00EBE763F07F038DF80530F3E700238DF8A9
S214401F1005308DF806308DF807300521DDE70023C3
S214401F208DF805308DF806308DF807300521D4E75A
S214401F30FF238DF805308DF806308DF807300521E3
S214401F40CBE70A0C8DF805200A0A8DF806208DF896
S214401F5007101A0A8DF808208DF809300721BCE7CB
S214401F600A0C8DF805200A0A8DF806208DF8071011
S214401F701A0C8DF808201A0A8DF809208DF80A30B8
S214401F800821AAE7C1F3072384B98DF805308DF8F8
S214401F900610130E8DF80730130C8DF80830130A10
S214401FA08DF809308DF80A20082196E763F07F0304
S214401FB08DF80530EBE70B0C8DF805300B0A8DF8E5
S214401FC006308DF80710130E8DF80830130C8DF878
S214401FD00930130A8DF80A308DF80B2009217CE76A
S214401FE040F2271213491448144CA0471448A047FF
S214401FF01448A047002019E0002017E04E1E01AB11
S2144020009D197F201A46104C12F8013B83EA400384
S214402010E05C9542F8D104AB1E44430006F80C3C05
S21440202001A80A4B98470028DAD1012004B070BDB9
S214402030800C0020F4634100BC5C41002DD440007D
S2144020408C684100E85C410080644100811E40008D
S21440205000B585B0002301930290ADF80C1001A99D
S2144020600320024B984705B05DF804FBC1044000CE
S2144020702DE9F04182B00546CF282AD000F13B0337
S214402080DBB2012B25D90B244FF00108234F4146E4
S2144020900DF10700B847064620BB9DF80730AB4217
S2144020A02CD0631E13F0FF04F1D10B2401271B4DE7
S2144020B039460DF10700A84710BB9DF8073053B3CB
S2144020C0631E13F0FF04F3D10126304602B0BDE88C
S2144020D0F08101210DF10700104B98470028D2D01F
S2144020E00026F2E74FF4B1720D490E480E4CA04759
S2144020F00E48A0470E48A0470026E6E70B24D5E743
S2144021004FF4B87206490748074CA0470748A0470F
S2144021100748A047D9E70126D7E700BF512040002F
S2144021200C644100BC5C41002DD44000B8684100BE
S214402130E85C41002DE9F04F85B083468A46174655
S2144021404FF00009374D27E040F2FF223649374826
S214402150374CA0473748A0473748A047002301934D
S214402160019805B0BDE8F08F002C2EDD41460BEB04
S2144021700900A8470446002834D11FB92F4B1B78C6
S214402180002B3AD0C1440FFA89F9AAEB080A1FFA85
S2144021908AFABAF1000F41D0D046BAF5005F28BFA0
S2144021A04FF400580A24012631460DF10B00A8478B
S2144021B001900028C8D19DF80B301B090F2BD3D0B7
S2144021C0013C24B2B4F1FF3FEED140F20B32164947
S2144021D01648174CA0479DF80B101948A0471648BC
S2144021E0A047BDE74FF445720F491048104CA04732
S2144021F01448A0471048A047B2E7022103A8A847C2
S2144022000028BFD040F21F3207490848084DA8476B
S2144022100D48A8470848A8470194A1E70123019321
S2144022209EE700BF5120400018644100BC5C41005E
S2144022302DD44000EC684100E85C4100800C002052
S2144022402069410050694100846941002DE9F04F02
S21440225085B006460291302894BFC323C923039312
S21440226094BF4FF0010B4FF0000B0A24DFF8B490F8
S214402270DFF8B4A02BE00398D047804601283CD036
S2144022804FF467721F492048204DA84731462048E2
S214402290A8472048A84701201F4FB8470021009173
S2144022A00B460A46CF20C847CF20D04740F2AF3231
S2144022B014491548154DA847029B324621461748F3
S2144022C0A8471448A8470120B847013C15D0CDF888
S2144022D000B00423029A31460398C8478046012836
S2144022E0C9D040F2963207490748084DA8473146BC
S2144022F00B48A8470748A847CDE7404605B0BDE885
S214402300F08F00BF38644100BC5C41002DD44000D3
S214402310806A4100E85C4100D1014000B86A410053
S214402320546A4100A11E4000712040002DE9F04F44
S21440233087B00391FF2894BFC423CA23029394BF57
S2144023404FF0010B4FF0000B0A24DFF80491DFF842
S21440235004A15F4683462AE00298D047804601287B
S2144023603AD040F21D4230493048314DA847594690
S2144023703048A8473048A8470120304DA84700219C
S21440238000910B460A46CF20C847CF20D04740F2A0
S2144023903C4225492548264EB0475A4621462848BD
S2144023A0B0472548B0470120A847013C37D00097A2
S2144023B00423002259460298C84780460128CBD0BD
S2144023C040F2174218491948194DA84759461D4822
S2144023D0A8471948A847CFE73A46042105A81A4B0C
S2144023E09847804601280AD040F224420E490F48BA
S2144023F00F4DA8471548A8470F48A847BCE79DF883
S21440240015209DF816301B0443EA02239DF814203D
S21440241013439DF8172043EA0263039A136040462D
S21440242007B0BDE8F08F00BF58644100BC5C410077
S2144024302DD44000E8694100E85C4100D1014000ED
S2144024403C6A4100BC694100352140001C6A41009D
S214402450A11E40007120400030B583B00024009497
S214402460234622462146CF20034DA847CF20034B84
S2144024709847204603B030BDA11E40007120400062
S2144024800020014B18707047800C002000B583B0C8
S21440249001A9034B9847019803B05DF804FB00BFC1
S2144024A02D23400008B5044B984701280CBF002058
S2144024B06FF0050008BD00BF2D23400008B5044B53
S2144024C0984701280CBF00206FF0050008BD00BFEC
S2144024D04D22400030B583B0002302A941F8083DA4
S2144024E0344A13704EF62400334B984748B3314B6A
S2144024F01B787BB9009921F07C0141F05001009196
S2144025004EF624002D4B98470446002839D0012229
S214402510284B1A7001A94FF48050274B9847002843
S2144025203AD04EF62400264B984720F0700141F0F2
S21440253050014EF62400234B98470024204603B013
S21440254030BD01221B4B1A7040F2C7421E491F483D
S2144025501F4CA0471F48A0471F48A04769464EF655
S2144025602400154B984704460028C0D140F2CA4282
S21440257015491648164DA8471848A8471648A8476C
S214402580DCE740F2D44210491048114DA8471448A1
S214402590A8471148A847D1E740F2DE420A490B480F
S2144025A00B4CA0470F48A0470B48A0476FF00504C8
S2144025B0C4E700BF800C00202D2340004D22400081
S2144025C08D244000BD24400074644100BC5C410042
S2144025D02DD4400080654100E85C4100D065410054
S2144025E000664100346641002DE9F04F87B08146D1
S2144025F0039116460A244FF0000B374FDFF804A12C
S2144026002BE0C820D047012840D040F263423349EF
S2144026103348344DA84749463348A8473348A84727
S2144026200120334DA847002100910B460A46CF2093
S214402630B847CF20D04740F2844228492848DFF8A0
S214402640A480C04733464A4621462A48C0472748C2
S214402650C0470120A847013C39D0012E04BF4FF0A7
S214402660010B02260022009233464946C820B8474E
S2144026700128C6D040F25D4218491948194DA8476E
S21440268049461D48A8471948A847C9E7BBF1000F67
S21440269015D00022314605A8184B98479DF81430AF
S2144026A0039A1370012810D040F273420B490C482D
S2144026B00C4DA8471248A8470C48A847B0E7002248
S2144026C0314603980D4B9847ECE7002001E06FF049
S2144026D0050007B0BDE8F08FA11E400068644100C9
S2144026E0BC5C41002DD440008C664100E85C410053
S2144026F0D1014000EC6641005C6641003521400057
S214402700C4664100712040002DE9F04F89B0039027
S214402710049117464FF00A08DFF844A2DFF84492C7
S214402720DFF844B229E040F2CA327B497B487C4C11
S214402730A04729467B48A0477B48A04701207B4DC1
S214402740A847002100910B460A46CF20D047CF200D
S214402750774B984740F2F2326F497048704CA0472A
S2144027603B46039A41467348A0476F48A04701201E
S214402770A847B8F1010800F0CA80012F08BF022719
S214402780002200923B46039D2946C720D047012899
S214402790C9D1C720664B984701280BD04FF47472B6
S2144027A05D495E485E4CA04703996348A0475E4833
S2144027B0A047C3E70026ADF81C603C46CDF8148021
S2144027C0DDF810801DE0B4F5005F94BF03230223BC
S2144027D063F00F038DF81B3001210DF11B00C84735
S2144027E0F0B9294608EB0600C84700282FD19BF8C9
S2144027F00030002B38D02E4436B2641BA4B2002CD6
S2144028004FD02546B4F5005F28BF4FF40055ADB213
S214402810002ED8D1B4F5005F94BF03230123D7E739
S214402820DDF814804FF4547244493C483C4CA04771
S2144028304348A0473C48A0474FF47872364937484B
S214402840374CA0473F48A0473748A04776E7DDF8D3
S214402850148040F2593239493048314CA0473A4802
S214402860A0473148A047E7E7022107A8C847002805
S214402870C1D0DDF8148040F2633230492748284CF6
S214402880A0473248A0472848A047D5E740F23B1229
S2144028902F492248224CA0472E48A0472248A0470E
S2144028A028E0DDF814809BF80030002B0CBF022493
S2144028B00324214607A8284B98470028E6D108ABB2
S2144028C0234413F8053C2BB908AB1C4414F8063CCB
S2144028D0C32B1AD04FF4A1721D491048104CA04784
S2144028E09DF81E309DF81D209DF81C101B48A047E3
S2144028F00D48A0474FF47A7207490848084CA0474D
S2144029001048A0470848A04718E7002001E06FF0AD
S214402910050009B0BDE8F08F48644100BC5C41004A
S2144029202DD4400008674100E85C4100D1014000DA
S21440293071204000EC664100386741002864410041
S2144029407067410064684100A8674100DC67410049
S214402950FC63410014684100512040003468410047
S214402960A11E4000811E4000800C00202DE9F84F3B
S214402970BDF82840002C55D081460E4692469846D3
S21440298003012949CB58002B4CD001EB00139B8800
S2144029909BB2002B46D001EB00139B7ADBB2012B97
S2144029A040D1F48001EB0017DFF880B015E02546F3
S2144029B001231AE001230022114610461B4CA04773
S2144029C0BDE8F88F1A481B4DA84721461A48A84725
S2144029D01A48A847BDE8F88F24B3BB88E31A1BB251
S2144029E0002BE4DDBD88ADB2002339682A46404658
S2144029F0D8470028E6D13B683360B580F3885B1B38
S214402A00F3800F4B1B682BB10D4B1B68324651466B
S214402A1048469847641BA4B2A844BB7A002BDBD137
S214402A20002CC7D1BDE8F88F442F0020C50C4000CD
S214402A30DC5F41002DD44000D46A4100E85C410090
S214402A40F42F0020F0B599B01446412837D00D46F3
S214402A50542834D0422849D043285FD0442800F038
S214402A60A5804B2800F0A2804A2800F0C280462865
S214402A7000F0D580482800F0FD804D2800F0CD803D
S214402A80452800F01881472800F03A814C2800F08D
S214402A901081522828D10123142207A92046994C98
S214402AA0A04708BB984B089A1A601B68E3B1964B40
S214402AB01B689DF82C2009990798984714E0002336
S214402AC0042207A920468F4CA04768B99DF81D30C0
S214402AD08DF80C308D4B1B6833B18C4B1B6803AAAA
S214402AE001219DF91C00984719B0F0BD002304222F
S214402AF007A92046834CA0470028F5D19DF81D30F5
S214402B008DF80C30814B1B68002BEDD07F4B1B683B
S214402B1003AA02219DF91C009847E5E700230C22F2
S214402B200DEB02012046774CA0470028DCD19DF9EA
S214402B301520002A23DB9DF91410754B03EB011179
S214402B40C97AC9B203EB0213D97201219972BDF852
S214402B501610083989B219816E490B8801339BB229
S214402B600B800B889BB21BB90B8801339BB20B8042
S214402B70684B198889B2664B03EB0213D9808DF8EF
S214402B801C200223ADF82030BDF80E30ADF82230C0
S214402B90049B09935D4B1B68002BA5D05B4B1B68C1
S214402BA007AA04219DF9140098479DE700230422B4
S214402BB007A92046534CA047002895D19DF91C00F4
S214402BC08DF80C009DF91D308DF80D303BB9BDF8E1
S214402BD01E30083B9BB24E4A02EB001213814B4B11
S214402BE01B68002B80D0494B1B6803AA05219847D9
S214402BF07AE70023442207A92046424CA0470028F3
S214402C007FF472AF444B1B68002B3FF46DAF424BD2
S214402C101B68179907A8984766E7062700E0062727
S214402C200023102203A92046364EB04700287FF4E2
S214402C305BAF9DF91800BDF81A10354A02EB00123A
S214402C4000231373BDF914E0BDF81630BDF80E60CE
S214402C50ADF82660049E0A96D28892B291420BD076
S214402C60102D7FF641AF0123002211461046254C19
S214402C70A04739E70927D3E7BEF1000F01DDAE458F
S214402C800EDBADF820E000230793204B1B68002B9B
S214402C903FF42AAF1D4B1B6807AA3946984723E7DF
S214402CA01FFA8EF2009223443A4607A91B4CA047CF
S214402CB01AE7072500E007250023082207A9204633
S214402CC0104CA04700287FF40FAF9DF91C00BDF8BC
S214402CD02020BDF81E30ADF80C300D4B03EB001332
S214402CE0DB889BB29A427FF4FFAE084B1B68002BF2
S214402CF03FF4FAAE054B1B6803AA29469847F3E60D
S214402D000825D9E7C50C4000F82F0020F42F0020F6
S214402D10442F0020820C0020FC2F00206D2940000C
S214402D2008B50A4B1B7803B108BDB02200210848FD
S214402D30084B984708490220084B98470122034B06
S214402D401A700022064B1A80EEE700BF810C002066
S214402D50442F0020DD054000452A4000A10D4000DC
S214402D60820C0020024B1860024B1960704700BF6F
S214402D70F42F0020FC2F00202DE9F04186B00228D9
S214402D8040F0B480012907D002297ED04FF0FF34AE
S214402D90204606B0BDE8F081564E3478E0B235782D
S214402DA0EDB233780133544981FB0341CC18D9172F
S214402DB0C1EBA401C1EBC1015B1ADBB233704F4BD0
S214402DC003EB05139B7AFBB106244A4DDFF828E156
S214402DD04A4F2878C0B22E78F6B22B7801338EFB55
S214402DE003C101EB030CD917C1EBAC01C1EBC10128
S214402DF05B1ADBB22B7007EB06139B7A43B1013CA0
S214402E0014F0FF04E5D1C1E73C4B03EB051502E0A7
S214402E103A4D05EB061544B2002CB9DB1746102296
S214402E2000212846364B98470123AB72354A138813
S214402E3001339BB2138013889BB21BB913880133AE
S214402E409BB21380DFF8BC80B8F800309BB2EB80B2
S214402E502D482E4EB047B8F8002092B221462C4856
S214402E60B0472C48B04717F0010F91D006AA02F899
S214402E70044D2123EB720023029301930093042315
S214402E8050210220244DA84782E724490C78E4B21A
S214402E900B78234D05EB03150B780133584203F0AE
S214402EA0030300F0030058BF4342DBB20B70AB7A1B
S214402EB0CBB103200E461A4F3478E4B2357807EB90
S214402EC0051533780133594203F0030301F003013B
S214402ED058BF4B42DBB23370AB7A23B1431E13F07C
S214402EE0FF00E9D152E7073464B295E74FF0FF346C
S214402EF04EE700BF840C002093244992442F0020C4
S214402F00DD054000820C0020DC5F41002DD44000EF
S214402F10586B4100E85C4100ED064000850C0020FF
S214402F20B42F002030B589B0041E36DB002937D0D8
S214402F30204B03EB04139B7ADBB2012B33D1002AE0
S214402F4034D01C4B03EB0413DB7A13F0010F07D08D
S214402F50184B03EB0413DB7A8DF81D304B2500E04D
S214402F6044258DF81C40082205A8134B9847114865
S214402F7000EB0410C388ADF81E3000230293019383
S214402F8000930C2305AA294602200C4CA047002893
S214402F9018BF6FF0080009B030BD6FF00500FAE7C3
S214402FA06FF00500F7E76FF00500F4E76FF00500F7
S214402FB0F1E700BF442F0020C9054000ED06400061
S214402FC000283CDB00293DD0B2F5AF6F3DD8224B00
S214402FD003EB00139B7ADBB2012B39D110B588B0D6
S214402FE08DF81000ADF812201B4B03EB0013DB8866
S214402FF0ADF81C300728B4BF50244424164B03EBCE
S2144030000013DB7A13F0010F06D0134B03EB0010CE
S2144030100489A4B24C2000E045200294019200911D
S21440302010230DEB030240F0800102200B4CA0471A
S21440303000280CBF00206FF00D0008B010BD6FF0E8
S214403040050070476FF0050070476FF00500704749
S2144030506FF00500704700BF442F0020ED0640008B
S21440306000283ADB00293BD0002A3CD070B586B019
S214403070214C04EB0014A47AE4B2012C36D11E4E47
S214403080050174197151A280227B002A31D1012199
S2144030902173E27A0A40002A0CBF46214D21D3B95B
S2144030A04FF0FF3304938DF81400134B03EB0010DE
S2144030B0C388ADF81630002302930193009308238B
S2144030C004AA02200D4CA04700280CBF00206FF039
S2144030D00D0006B070BD0493E5E76FF0050070473D
S2144030E06FF0050070476FF0050070476FF0050001
S2144030F0EFE70020EDE700BF442F0020ED0640003C
S21440310030B587B004462048204DA8472146204881
S214403110A8472048A847002C2FDB1F4B03EB04137F
S2144031209B7ADBB2012B2BD18DF814401A4B03EB64
S2144031300413DA88ADF8162000229A72DA80DB7A19
S21440314003F0010393420292019200924FF004036F
S21440315005AA0CBF49214E210220104DA847051E46
S21440316018BF6FF00805102200210B4800EB041032
S2144031700B4B9847284607B030BD6FF00505F9E77A
S2144031806FF00505F6E700BFDC5F41002DD4400038
S214403190F86A4100E85C4100442F0020ED064000FC
S2144031A0DD05400010B584B004460A4B9847C3B2CC
S2144031B0402B0BD800220292019200920133224605
S2144031C04A210220044CA04704B010BD6FF0050011
S2144031D0FAE700BFEB054000ED06400030B597B07B
S2144031E0BDF868500028C0F2CC80002B00F0CC80A0
S2144031F06A4C04EB0014A47AE4B2012C40F0C78079
S214403200144602291BD08DF815208DF814001B6833
S2144032100493624B03EB0010C388ADF816300023CE
S214403220029301930093082304AA4F2102205C4C8A
S214403230A047002818BF6FF0080017B030BD06281A
S21440324000F3A880554A02EB0012D27A12F0010F22
S21440325000F08A80012C26D0032C38D0042C4AD08B
S214403260022C73D13F2D64D88DF810004B4A02EBE8
S2144032700010C288ADF812208DF811400595402206
S214403280194606A8474B984700230293019300939C
S214403290482304AA51212046414CA04710F1030F71
S2144032A03DD00020C9E71B6843B13C4B03EB001000
S2144032B0C37A43F00203C3720020BEE7374B03EBEA
S2144032C00010C37A03F0FD03C3720020B5E71B6805
S2144032D043B1324B03EB0010C37A43F01003C37282
S2144032E00020AAE72D4B03EB0010C37A03F0EF0350
S2144032F0C3720020A1E71B6843B1284B03EB0010C4
S214403300C37A43F04003C372002096E7234B03EB97
S2144033100010C37A03F0BF03C37200208DE700237A
S214403320029301930093482304AAD1210220A04788
S214403330B7E740F28F421C491C481D4CA0471D4829
S214403340A0471D48A0476FF0050076E740F294423C
S21440335015491648164DA84721461848A847164806
S214403360A8476FF0050068E740F299420E490F48BB
S2144033700F4CA0471248A0470F48A0476FF00500E3
S2144033805BE76FF0050058E76FF0050055E76FF014
S214403390050052E76FF005004FE700BF442F0020BE
S2144033A0ED064000C9054000E86A4100BC5C4100AB
S2144033B02DD44000106B4100E85C4100286B410072
S2144033C0486B410070B582B005462E4B9847C0F317
S2144033D00B00B0F5687F03D20024204602B070BDD3
S2144033E001A941F21040284B984704460028F4D1E2
S2144033F0019921F0EE6121F4EE2141F0887141F40B
S2144034008831019141F21040204B984715B3002176
S2144034101F481E4DA847AB211E48A84701211E48FD
S214403420A84700211D48A84781211D48A8471D4E92
S2144034301D4D3046A8470128FBD1019921F0EE6189
S21440344021F4EE2141F48031019141F210400F4BBE
S2144034509847C2E700210E480C4DA847B9210D48B1
S214403460A84701210C48A84700210C48A8478121BD
S2144034700B48A8470B4E0C4D3046A8470128FBD1B9
S214403480DBE700BFD5164000811B40008D1B400087
S214403490080201000C020100140201001C02010097
S2144034A00402010018020100751B400010B5002000
S2144034B00A4B98470A4CA0470028FCD0094B98472F
S2144034C0094A0A4BDA620A4CA0470028FCD0002082
S2144034D0084B9847084B984710BD00BFF54640003C
S2144034E01947400055474000013FB80500040E40CC
S2144034F061474000B5484000C948400010B5A2B0FA
S2144035001848194B98470020184B9847184CA04726
S2144035100028FCD0174B9847174A184B9A62184C0D
S214403520A0470028FCD00020164B9847164B9847DB
S21440353016480D4B9847164B1A68164B1344164AB6
S214403540934201D922B010BD2023009302AB0F2234
S2144035500E211248124CA047BDF848101148124B95
S2144035609847EFE7000E27078D694000F546400074
S2144035701947400039474000013F4D0E00040E40B9
S2144035804547400091464000A56840000000270798
S214403590A8010020C0D3BDF980C3C901000A0E406F
S2144035A00D00002010140E40834C40000020704751
S2144035B00D4B5B881A0A032A01D00020704713F08F
S2144035C0FF0F0ED1084BDB88042B01D0002070473C
S2144035D0054B064A9A60064A1A6104229A810120DF
S2144035E070470020704700BF14300020900C002029
S2144035F0B53640000122014B1A707047860C0020F9
S21440360010B582B0044B00934023044A00210220A8
S214403610034CA04702B010BD61364000D40C0020D9
S214403620D563400008B50023084A1370084A137053
S2144036300122084B1A70084B9847034608B91846AB
S21440364008BD064B98470346F9E700BF8C0C0020A0
S214403650880C0020860C0020013640007DB04000DB
S21440366048B908B5402902D0034B984708BD0348DF
S214403670034B9847F8E7704701364000D40C0020CB
S21440368085B0400008B5014B984708BD81B0400062
S21440369010B5034B034A04490448054CA04710BDE7
S2144036A0B1354000AC000020880C00208C0C002077
S2144036B07937400008B5044B9B89042B00D008BDE1
S2144036C00248034B9847FAE714300020900C00203D
S2144036D0E1B04000224B1B780BB9184670472DE9E5
S2144036E0F04184B00746EFF31083B3FA83F35B09E7
S2144036F0039372B6BFF35F8F00211A4B1970DDF843
S2144037000C80194D40222846184B98473C46403777
S2144037102E4620686168A268E3680FC610343546B6
S214403720BC42F5D1124B009340230F4A0021812022
S214403730104CA04780F00100094B1870B8F1000FFC
S21440374005D00122074B1A70BFF35F8F62B6044B59
S2144037501B7883F00103184604B0BDE8F08100BF33
S214403760860C0020A5010020940C00203DDE400081
S214403770F5354000D563400038B51446374A1278D0
S21440378012F0800F05D102F06002202A49D00020B6
S21440379038BD12F0600203D1304D6D78062D03D04F
S2144037A0202A28D0002038BD2D4B9847837A212BDD
S2144037B001D0002038BD294B5B881B0A212B04D042
S2144037C0C27B9A420DD0002038BD244B00F109023E
S2144037D09A60427AD9888A4228BF0A469A8101204E
S2144037E038BD1E4B9C60028AD9888A4228BF0A464A
S2144037F09A81012038BD194A5278022A07D0032AF6
S2144038000AD0012A01D0002038BD984738BD134B56
S21440381098600120988138BD104B996001209881AE
S21440382038BD0E4A52780A2A07D00B2A0BD0092AEE
S21440383001D0002038BD984738BD084B5B881B0A2E
S2144038400370012038BD054BDB8823B9034B5B88EA
S2144038500B70012038BD002038BD00BF143000205A
S214403860013A4000104B1B681A6853881A44037884
S2144038701844904211D24378042B10D08B4209D082
S21440388003781844904206D24378042B09D08B42E2
S214403890F6D107E0704700207047002070470020B0
S2144038A070470020704700BF200D002008B5034B2E
S2144038B0987800F07F00024B984708BD14300020EF
S2144038C025604000194B1B784BB3194B1B681B688F
S2144038D01A79824225D970B4164A13605C881C4413
S2144038E0A34220D20025012607E0124A13600FE0CB
S2144038F01A7813443546A3420CD25A78042AF7D194
S2144039009A788242F4D1DA788A42F1D1002DECD10D
S214403910012002E0074A1360002070BC7047002078
S2144039207047002070470020F7E700BF1C0D0020BE
S214403930200D0020240D00202DE9F84304460021E8
S214403940134B9847804610B94046BDE8F883114B64
S2144039501B685B6853F82490D9F80C3098470146AA
S21440396020460B4B984780460028EDD00A4B1C68F3
S21440397005260A4D0A4F31462046A847044610B150
S2144039808078B847F7E7D9F804309847DCE700BFB7
S214403990C5384000200D0020240D0020653840002A
S2144039A0816140002DE9F0418046104B9847034620
S2144039B0C8B10F4B1C6805260E4D0F4F31462046AA
S2144039C0A847044638B18288C1788078B84703460D
S2144039D00028F3D107E0094B1B685B6853F8283092
S2144039E01B68984703461846BDE8F081C538400036
S2144039F0240D00206538400089604000200D0020DE
S214403A00014B1868704700BF240D002008B5014BD5
S214403A10984708BD495F400070B5114B1B7883B18D
S214403A20104B1B681B681B795BB100240E4E0D4D76
S214403A302046B0470134E4B22B681B681B79A3428A
S214403A40F6D80022064B1A70084B1B8813F0020F5C
S214403A5003D10022054B1A8070BD054B9847F8E706
S214403A601C0D0020200D002039394000140D002088
S214403A7081B0400038B50D4B1B78B3B10C4B1B687A
S214403A801A6812798AB10024094D06E00134E4B27E
S214403A902B681A681279A24207D95B6853F824301B
S214403AA01B69002BF2D09847F0E738BD1C0D00206C
S214403AB0200D0020F8B5914B00229A811A615A6178
S214403AC01B7813F0800F14D113F0600F00F0D580F0
S214403AD08A4B1B7803F01F03012B00F08581874B30
S214403AE01B7803F01F03022B00F0DB8100231846EF
S214403AF0F8BD824AD288002A00F0FC8113F0600F9D
S214403B00E6D113F01F0306D17C494978062914D024
S214403B10082974D051B1012B79D0022BD8D1774BDC
S214403B205B78002B00F09B8000234FE1022AD6D121
S214403B3002217348734B9847B8E0704B5A88130A73
S214403B40013B0E2B00F29181DFE813F00F001D00C1
S214403B5037008F018F018F018F018F018F018F01F9
S214403B608F018F018F018F012F00674B18680178F6
S214403B70644B9847614BDA889B89934240F2968023
S214403B805E4B9A8192E0D2B25F4B1B685B7C93425D
S214403B90A5D95D4B5B6853F832004188594B98472E
S214403BA0564B9B6802225A70E4E7574B98680028A9
S214403BB095D04188534B9847DCE7D2B2012A1BD0B8
S214403BC0AAB1022A84D1514A1424013A504900230A
S214403BD012F8010F21F8020F0133DBB2A342F7D3EC
S214403BE0610002314A480170464B9847C2E70421BB
S214403BF04848444B9847BDE7474A1924E5E7012A19
S214403C007FF46DAF012145483E4B98474EE03B4917
S214403C1049780A2981D1012A40F0E6803F4B1B783B
S214403C20002B00F0E180354B1C793D4B1D682B681E
S214403C301B79A34240F2D88000212046394B984752
S214403C4000283FF445AF6B6853F82430DB6898474C
S214403C50354B1870012118462A4B984726E0022A11
S214403C607FF43DAF254B1879304B9847304B188042
S214403C7002211846234B984718E013F01F0340F0E4
S214403C8099801E4A5278013A082A00F29380DFE86B
S214403C9002F00F912191059191915700174BDB88C7
S214403CA0002B7FF41CAF234A144B1A6101231EE7F6
S214403CB0124BDB88002B7FF412AF104B5B88012B36
S214403CC07FF40DAF0E4A138823F0020313801A4B7D
S214403CD09847EBE7094BDB88002B7FF400AF074B98
S214403CE05B88012B01D0002370E0054A138843F01F
S214403CF002031380114B9847D8E700BF14300020CA
S214403D00140D00207D604000E4000020900100205B
S214403D103C01002070010020740100201C0D002092
S214403D20200D0020C5384000180D0020D961400005
S214403D30160D0020AD38400081B0400083B04000F2
S214403D406E4BDB88002B7FF4CAAE6D4B984700283D
S214403D503FF4BEAE694B9A786A4B1B685B7C9A42CE
S214403D603FF7B6AE684B9847644B9B78674A1370EC
S214403D70002B9BD003F10053013B624A526802EB92
S214403D80C3006349086052F833301B79002B8DD04E
S214403D90002426465F4D0F4631462046A847002859
S214403DA03FF496AE0134E4B23B681B681B79A342ED
S214403DB0F2D87BE7012B0DD0022B7FF489AE4F4B18
S214403DC05B78012B2ED0032B3CD00023002B7FF4B6
S214403DD08EAE7DE6494A52780B2AEDD1474BDB88BA
S214403DE013B94A4B1B7873B9484B1B78002B00F02D
S214403DF08380424B1C79464B1D682B681B79A34237
S214403E0035D8002373E63D4B1C795D882046424BEF
S214403E10984700283FF45CAEE9B220463D4B9847B1
S214403E200346D3E7354BDB88002B7FF458AE334B45
S214403E305B88002B7FF453AE304B1879374B98474E
S214403E400346C3E72D4BDB88002B7FF448AE2B4B55
S214403E505B88002B7FF443AE284C2079304B984744
S214403E602079304B98470346B0E70023AEE7002161
S214403E7020462D4B984700283FF431AE6B6853F8E8
S214403E802450EB68984701462046274B9847002821
S214403E903FF425AEAB689847034600287FF427AE2C
S214403EA01DE61A4B1B780BB3194B1A6813681B791F
S214403EB0F3B100241C4E164F536853F82450EB6859
S214403EC0984701462046B047034600283FF40FAEC9
S214403ED0AB689847034600287FF409AE0134E4B245
S214403EE03A6811680979A142E6D800E60023FEE563
S214403EF00023FCE50023FAE50023F8E51430002013
S214403F0061604000E4000020193A40001C0D00208B
S214403F10200D0020A539400039394000FD624000A0
S214403F205165400019624000C53840002DE9F04117
S214403F3080B90C469046002A0FDD8F18084E094D72
S214403F40306821462B6898470134BC42F8D1404639
S214403F50BDE8F0814FF0FF38F9E78046F7E700BF4D
S214403F6010300020083000200138022815D82DE9EE
S214403F70F0410E4614469AB10D46DFF838800C4F95
S214403F80D8F8000015F8011B3B68984700280ADB64
S214403F90A81B013CF4D1BDE8F0814FF0FF307047DC
S214403FA01046BDE8F0814FF0FF30BDE8F08100BF1D
S214403FB00C3000201030002038B54FF40044664BDB
S214403FC05C600B20654DA8470C20A847644B4022F8
S214403FD01A61C3F8A0201A6304225A61C3F8A020CD
S214403FE05A66C3F890205A655A62C3F880201A6F02
S214403FF022F004021A675A6F22F004025A6702221D
S2144040001A631A61C3F8A020564A4FF40051116350
S2144040101161C2F8A01014631461C2F8A0404FF0BA
S214404020C0501866C3F8900058655862C3F88000C0
S2144040301C6F04431C675C6F24F0C0545C67586078
S2144040404FF480501866C3F8900058655862C3F81D
S21440405080001C6F24F480541C675C6F24F48054EA
S2144040605C6758601966C3F8901059655962C3F882
S2144040708010186F20F400501867586F20F40050D6
S214404080586759604FF480411966C3F890105965D7
S2144040905962C3F88010186F20F480401867586F34
S2144040A020F48040586759604FF400611966C3F8A1
S2144040B0901059655962C3F88010186F20F400605C
S2144040C01867586F20F40060586759604FF4807343
S2144040D01366C2F8903053655362C2F88030106F52
S2144040E020F480701067506F20F4807050675360E3
S2144040F04FF400731366C2F8903053655362C2F8AB
S2144041008030106F20F400701067506F20F40070FD
S214404110506753604FF480631366C2F8903053651F
S2144041205362C2F88030106F18431067506F20F407
S2144041308060506753601166C2F8901051655162B6
S214404140C2F88010136F0B431367536F23F400635A
S2144041505367516038BD00BF50140E407147400051
S214404160000E0E4000100E40544B1B78FF2B34D0F0
S21440417000B583B0EFF31083B3FA83F35B09019382
S21440418072B6BFF35F8F00224D4B1A7001994B4AAF
S21440419013780133137029B10122494B1A70BFF3CB
S2144041A05F8F62B6474A904218D0474A904223D023
S2144041B0464A90422ED0464A904239D0454A90428E
S2144041C044D0454A90424FD0444A90425AD0444AFE
S2144041D0904265D003B05DF804FBFEE70720414BF4
S2144041E098470720404B9847002107203F4B984769
S2144041F007203F4B9847EDE716203A4B9847072055
S214404200394B984700210720384B98470720384BB2
S2144042109847DFE71520334B98470720324B98479F
S21440422000210720314B98470720314B9847D1E76C
S21440423014202C4B984707202B4B984700210720EB
S2144042402A4B984707202A4B9847C3E71320254B0D
S21440425098470620244B984700210620234B984732
S2144042600620234B9847B5E70E201E4B984706205E
S2144042701D4B9847002106201C4B984706201C4B98
S2144042809847A7E70920174B98470620164B9847AC
S21440429000210620154B98470620154B984799E76E
S2144042A00820104B984706200F4B984700210620C1
S2144042B00E4B984706200E4B98478BE70030002061
S2144042C0A50100200040034000000440008000405C
S2144042D000C0014000800140004002400000024013
S2144042E000C0004071474000A1484000514840008F
S2144042F08D48400001607047064BD3F8142122F4E5
S2144043004062C3F81421D3F8202142F00102C3F8DA
S2144043102021704700020E400B4619B109688160A3
S2144043205B68C3601AB1136883615368C3617047A2
S2144043300B4619B1096801605B6843601AB113689F
S214404340036153684361704721F4FE7121F0010117
S2144043508905890D016270470AB901667047416652
S21440436070474264B1F1805F1FD014D891B1B1F16B
S214404370006F23D110B4016F046FD34321401C4615
S21440438019400167436F416F0B40234043674260CB
S2144043905DF8044B7047B1F1405FFBD0B1F1605F10
S2144043A0F8D0B1F1205F09D17047036F134303671C
S2144043B0436F416F0B4023EA0203436742607047F6
S2144043C0416412F0010F14BF4166016612F00A0FF5
S2144043D014BF0162416212F0020F07D112F0080FBB
S2144043E018BFC0F88410416101607047C0F8801063
S2144043F0F9E710B4019C41644CB901664BB10165C4
S2144044004AB94163016101605DF8044B70474166FB
S214404410F4E74165F4E70163F4E712F0100F10D0BB
S214404420C0F8B01012F0200F14BFC0F8D410C0F877
S214404430D01012F0400F14BFC0F8C010C0F8C4101F
S2144044407047C0F8B41070470164704741647047C5
S214404450C06C7047806C704770B582B00D4643099B
S21440446003F5001303F207735C0201F0F043B3F167
S214404470205F31D016D8B3F1006F1BD0B3F1805F08
S21440448016D100F01F000126864032464FF080517C
S2144044902046224B984715F0010F14BF66662666E5
S2144044A0012017E0B3F1405F21D0B3F1605F1ED02A
S2144044B000200FE000F01F000126864032464FF0F5
S2144044C000612046154B984715F0010F14BF6666ED
S2144044D02666012002B070BD00F01F0101262A4664
S2144044E006FA01F120460E4B98473046F2E705F0B3
S2144044F0605200F01F01012605EA06030093C5F34B
S2144045008003B2F1605F14BF0022012206FA01F177
S2144045102046044CA0473046DCE700BF63434000DB
S214404520C1434000F34340002DE9F041044688462D
S2144045300E4B9847054620460D4B9847054013D0EE
S2144045400C4C04F1600603E0B4420DD010345DB16B
S21440455020684045F8D161682942F5D0E36898471D
S214404560636825EA0305EFE7BDE8F0815144400063
S21440457055444000280D0020F8B5184C2668062EF5
S21440458029D84FF0000C6446154F04E00134E4B2DD
S214404590A446A64209D3A64625017D598D42F5D1AB
S2144045A007EB04156D689542F0D10D4D4FEA0E1E8F
S2144045B005EB0E0445F80E106260A3600699E160B4
S2144045C00136664504BF05490E6011461A46054B3E
S2144045D098470020F8BD0120F8BD00BF980D002088
S2144045E0280D00201B44400008B50B210148024B13
S2144045F0984708BD000E0E402945400008B50C21DE
S2144046000148024B984708BD00100E40294540001F
S214404610F8B505460C461746184B984706464FF0E1
S214404620FF312846164B98472846164B9847E2B225
S21440463002F01F030121994063099B0003F1604388
S21440464003F56143C3F88010C3F88011002C0DDBDE
S2144046503F01FFB204F1604404F5614484F80073FE
S214404660196031462846084B9847F8BD02F00F02BD
S2144046703F01FFB205488754F2E700BF554440006B
S2144046804D444000514440004944400014ED00E091
S214404690174A136B23F0700318431063936E13F09E
S2144046A0080F0AD14FF4006311498A6E12F0080FC2
S2144046B003D1013BF9D1012070470D4A136B23F01B
S2144046C0030343F002031363936E13F0080F0AD1FB
S2144046D04FF4006306498A6E12F0080F05D1013B7D
S2144046E0F9D101207047002070470020704700BF76
S2144046F000040E40012803D0054A064B1A60704756
S214404700044A936843F0254343F480139360F3E7E9
S214404710080000A510140E40054B5B6913F0800F8F
S2144047201DBF044B986EC0F3C0100020704700BFFA
S21440473010140E4000040E400022014B9A6270474F
S21440474000040E40024B986E00F00200704700BF17
S21440475000040E400022014BDA62704700040E400F
S214404760024B986E00F00400704700BF00040E40F5
S21440477032281ED81F280CD8114B9A690123834033
S214404780934318D0012303FA00F00D4B1861002024
S214404790704720380A4BD3F80821012383409343BF
S2144047A00BD0012303FA00F0054BC3F800010020AC
S2144047B0704701207047002070470020704700BFB8
S2144047C000040E40322822D81F280ED8114B9A6972
S2144047D001238340934301D000207047012303FA0E
S2144047E000F00C4B5861002070472038094BD3F836
S2144047F0082101238340934301D0002070470123C2
S21440480003FA00F0034BC3F8040100207047012070
S214404810704700BF00040E400C4B00F1100243F8F6
S21440482022109A6E4FF4807303FA00F0024209D1C8
S2144048304FF4006305498A6E024205D1013BFAD126
S21440484001207047002070470020704700040E404B
S21440485041F004010C4B00F1100243F822109A6E0E
S2144048604FF4807303FA00F0024209D14FF400631C
S21440487005498A6E024205D1013BFAD101207047B4
S214404880002070470020704700040E404FF48073AD
S21440489003FA00F0014B1860704700BF00040E405A
S2144048A04FF4807303FA00F0014B5860704700BF26
S2144048B000040E40000200F4706040F00100014B1E
S2144048C09863704700040E408022014B1A60704780
S2144048D000040E40034B1A6FC0F3120010431867D3
S2144048E0704700BF00040E40024B187880F001006D
S2144048F0704700BF9C0D002021B9436823F0010398
S21440490043607047436843F001034360704730B4E8
S21440491085688468A54203D085688468AC42FBD12C
S21440492061B1C4F3015000EB8005C4F3034000EBD3
S214404930450014F4800F18BF0C30086042B1C4F331
S214404940023101EB8101C4F3032000EB4101116009
S21440495043B1C4F3021202EB820204F00F0404EBEC
S21440496042041C6030BC7047F0B4446814F0010F39
S21440497005D00C293DD90C394FF4800700E00027BC
S2144049801D4CA4FB0356F60806EB8605A3EB450331
S21440499043EA0613A4FB0265ED0843EA053305EB3C
S2144049A08505A2EB450543EA05233B43A4FB0142AC
S2144049B0D20843EA025302EB8202A1EB420143EAE9
S2144049C00141836913F0040FFBD0036843F00103F1
S2144049D00360836913F0010FFBD00123C36181603C
S2144049E0036823F001030360C06A00F00100F0BCD6
S2144049F070470027C4E700BFCDCCCCCCF0B4049EB3
S214404A00C568C468A54203D0C568C468AC42FBD13B
S214404A1099B1C4F3033000EB8000C4F3032707EBDF
S214404A204007C4F3021000EB800504F00F0000EBD3
S214404A304500642505FB0070086042B1C4F3005091
S214404A4081000844C4F3034101EB4001116043B1C7
S214404A50C4F3017202EB8202C4F3036101EB42022B
S214404A601A6016B1C4F342543460F0BC704700007C
S214404A7070B42A4DA5FB0346F608039C640544EA39
S214404A80067406EB8606A3EB460344EA0363A5FBDF
S214404A900264E40843EA045304EB8404A2EB4402B1
S214404AA043EA02421E4BA3FB01439B0942EA031220
S214404AB01C4BA3FB01435B09A5FB0364E40804EB22
S214404AC08404A3EB44031A43A5FB0143DB0803EB32
S214404AD08304A1EB440142EA0122A5FB0315ED083D
S214404AE005EB8505A3EB450542EA0532836913F0DD
S214404AF0040FFBD0036843F002030360836913F09E
S214404B00010FFBD00123C361C260036823F0020398
S214404B100360C06A00F0020070BC7047CDCCCCCCBD
S214404B20D34D62101F85EB5108B51C4B984215D0EB
S214404B301B4B984216D01B4B984217D01A4B9842A4
S214404B4018D01A4B984219D0194B98421AD0194B84
S214404B5098421BD0184B98421CD008BD0820174BD3
S214404B60984708BD0920154B984708BD0E20134BA3
S214404B70984708BD1320114B984708BD14200F4B8B
S214404B80984708BD15200D4B984708BD16200B4B7F
S214404B90984708BD0720094B9847DEE700C4004009
S214404BA000040240004402400084014000C401402A
S214404BB00084004000040440004403407147400025
S214404BC0436823F4403343604368090401F44031AA
S214404BD019434160704732B900EB8100036B23F004
S214404BE001030363704700EB8100036B43F001034E
S214404BF00363704732B900EB8100036B23F0020376
S214404C000363704700EB8100036B43F002030363CA
S214404C10704700EB81010B6B23F0F0030B630B6BCB
S214404C201A430A637047431E1944B1FBF0F0431E13
S214404C30FE2B94BF00B24FF0FF3070477AB110B4ED
S214404C40144600EB81010B6B23F47F430B630A6B26
S214404C5042EA04220A6300205DF8044B70474FF096
S214404C60FF30704710B400EB8101086B80B20863D8
S214404C700C6B44EA036343EA02430B635DF8044B60
S214404C807047C369490201F4F05141F0B44141F420
S214404C90807123F4F0531943C161704710B4890101
S214404CA04318022444504FF0FF319962196A5A6003
S214404CB05DF8044B7047890105234350704700EB6D
S214404CC08111CA61704700EB81114A62704700EB60
S214404CD08111086A704700002A4B99424AD8A3F5CA
S214404CE07A5399422CD910B4274CA4FB0234A40B17
S214404CF0033C264B0B449B00B2FBF3F2033AFF2CDB
S214404D003AD9002101316408FF2C0ED90729F9D180
S214404D1013029BB2090401F4E0210B43E4B223439F
S214404D20036100205DF8044B7047FF2AF0D906293E
S214404D30EED801315208FF2AEAD90629F9D9E7E721
S214404D404900B2FBF1F2033AFF2A11D9002301339E
S214404D505208FF2A01D9072BF9D1110289B21B0448
S214404D6003F4E0230B43D2B21A430261002070479B
S214404D700023F2E701207047FF2A88BF0021D8D8D9
S214404D800021C5E7801A0600F11976050012FD3F9E
S214404D9038B504460D464FF0FF338362036A8023DE
S214404DA00360036B0823036020230360042303602F
S214404DB00A684968054B9847012814BF002001201F
S214404DC06B7A012B04BF4023236038BDD94C40008A
S214404DD00A4659B103780129C4BF417841EA032302
S214404DE0022A04DD827842EA032300E000231846C4
S214404DF070470000F8B5CC68002C4FD00B460546EF
S214404E008E68002068604A68120202F4407242F4DB
S214404E108052097C090401F4FE010A436A60E86096
S214404E2059681846224B9847E860012C0FD001235A
S214404E302B6000202B6A13F4807F36D147F22F5127
S214404E4047F230574FF0010E4FF0020C19E00323A3
S214404E502B600120EEE70A4670460CE008B9C5F81C
S214404E6000C013F0020FF6D070462B6B3370013C37
S214404E7001363A4664B12B6A13F4807F11D1511E35
S214404E808AB1012CEAD013F0020FEED10A46F1E7C0
S214404E902B6A13F0010FFBD02B6A00E0012420465A
S214404EA0F8BD0524FBE70924F9E70524F7E700BF2A
S214404EB0D14D400070B5CD68002D35D00B46044628
S214404EC08E68002060600A7C120402F4FE02496884
S214404ED0090201F440710A436260E060596818466E
S214404EE0154B9847E060236A13F4807F06D005256B
S214404EF01BE05DB1236A13F4807F18D113F0040FD2
S214404F00F7D033786363013D0136F2E7236A13F442
S214404F10807F0ED113F0040FF8D002232360236A5B
S214404F2013F0010FFBD000E00125284670BD052593
S214404F30FBE70525F9E700BFD14D400041637047C8
S214404F4080230360036B704782B0014628BB244B26
S214404F501B781BB9224B197002B07047214B1B7847
S214404F6003B9FEE7EFF31083B3FA83F35B090093CC
S214404F7072B6BFF35F8F00221B4B1A700098194A17
S214404F801378013B13700028E4D00122164B1A70A8
S214404F90BFF35F8F62B6DDE7FEE7114B1B78002B51
S214404FA0D8D1104B1B78FF2BF6D0EFF31083B3FA13
S214404FB083F35B09019372B6BFF35F8F00220A4BFF
S214404FC01A700198074A1378013313700028C1D02D
S214404FD00122054B1A70BFF35F8F62B6BAE700BF77
S214404FE09E0D002000300020A5010020034A00232B
S214404FF0136153619381024A137070471430002046
S214405000A40D002082B005220A4B1A700A4A136B80
S2144050100193019B43F04F030193019B43F0200310
S2144050200193019B1363136B13F0200FFBD002B068
S214405030704700BFA40D00200040044082B0032209
S2144050400A4B1A700A4A136B0193019B43F04F03B5
S2144050500193019B43F010030193019B1363136B71
S21440506013F0100FFBD002B0704700BFA40D002015
S2144050700040044008B5024B1B6903B1984708BD81
S2144050801430002030B587B0634B1B78032B29D0F3
S214405090624B1B88624A9489E41AA4B2002C44D11D
S2144050A0604A11880B449BB213805D4AD2889A426C
S2144050B003D05D4B1B78002B2BD00422564B1A7026
S2144050C05A4A136B0193019B43F04F030193019B94
S2144050D023F001030193019B1363136B13F0010F3D
S2144050E0FBD114E0514A136B0093009B43F04F03EF
S2144050F00093009B23F001030093009B1363136B04
S21440510013F0010FFBD14A4B98474A4B984707B0DC
S21440511030BD434B5B69002B5DD0984700285AD082
S21440512000223E4B1A803E4B9C89072C53D90022C6
S2144051303D4B1A7008243A4B9968384B1888EFF361
S2144051401083B3FA83F35B09059372B6BFF35F8FA0
S2144051500022394B1A70059D344B1B6B13F0020F1F
S2144051603DD14CB101440A46304812F8013B036534
S214405170531ADBB2A342F8D3284B1A8814441C8037
S2144051802A4A136B0393039B43F04F030393039BFB
S21440519043F010030393039B1363136B13F0100F3A
S2144051A0FBD0224A136B0493049B43F04F030493B3
S2144051B0049B23F001030493049B1363136B13F0C7
S2144051C0010FFBD1002DA2D001221B4B1A70BFF35A
S2144051D05F8F62B69BE70122134B1A70ABE72DB187
S2144051E00122154B1A70BFF35F8F62B604220A4B3A
S2144051F01A700E4A136B0293029B43F04F030293BE
S214405200029B23F001030293029B1363136B13F07C
S214405210010FFBD17BE700BFA40D0020A00D0020AE
S21440522014300020A20D00209D0D002000400440B8
S21440523075504000ED4F4000A501002038B5437C36
S21440524013F0100F16D00D46437C6FF304134374CF
S21440525004687CB102F10C03074951F8233013F47B
S214405260806F18BF42F080028168012D14BF002075
S2144052700120A04738BD00BF0040044030B482B093
S214405280411E830003F1402303F580231A6B1C6BF9
S21440529012F0020F32D014F0400F08D101EB810219
S2144052A02A4C04EB8202547C6FF38304547401EB63
S2144052B08102264C04EB8202527C12F00C0F28D15D
S2144052C01A6B0092009A42F04F020092009A22F027
S2144052D002020092009A1A631A6B12F0020FFBD178
S2144052E080B303282ED001EB8101184B03EB8103DA
S2144052F05A7C012161F383025A7423E001EB810258
S214405300124C04EB8202547C012565F383045474EA
S214405310CDE71A6B0192019A42F04F020192019A30
S21440532022F040020192019A1A631A6B12F0400F63
S214405330FBD101EB8101054B03EB81014B7C6FF305
S21440534083034B7402B030BC704700BFA80D0020EA
S2144053502DE9F04F83B08246471E07EB8702674B26
S21440536003EB820393F81190C9F38109002800F0FB
S214405370B98003280CBF012302234B4540F3B48079
S21440538007EB87035D4A02EB8303DD68D3F808C06A
S214405390654508D307EB870302EB83035B7C13F07A
S2144053A0400F00F0A58007EB8703544A02EB8303C7
S2144053B05C682C44ACEB050E1A8AC2F30906B64567
S2144053C03ABF76464FF001084FF0000805EB060E50
S2144053D007EB8703494A02EB8303C3F80CE0072E2A
S2144053E033D904F108033546820002F1402202F523
S2144053F0802213F808BCC2F850B013F807BCC2F8B5
S21440540050B013F806BCC2F850B013F805BCC2F84A
S21440541050B013F804BCC2F850B013F803BCC2F83E
S21440542050B013F802BCC2F850B013F801BCC2F832
S21440543050B0083D0833072DDBD8A6F1080323F00B
S214405440070308331C4406F007064EB1A2192C4D3C
S2144054500AF1140A14F8013B45F82A309442F9D16F
S21440546007EB8703254A02EB830309F101095A7CBF
S21440547069F383025A74A1B1800000F1402000F520
S2144054808020036B0193019B43F04F030193019BE4
S21440549043F010030193019B0363036B13F0100F5B
S2144054A0FBD0B8F1000F08D007EB8703134A02EB96
S2144054B083035A7C6FF386125A74F4451AD807EB66
S2144054C087030E4A02EB83035B7C13F0400F13D135
S2144054D007EB870302EB83035A7C42F080025A7440
S2144054E0002002E0012348E7012003B0BDE8F08F2A
S2144054F00020FAE70120F8E70120F6E7A80D002093
S214405500004004402DE9F04F9BB0864B984720B9A9
S214405510854BDB6913F4807F3BD03020834B984724
S214405520814B9B6913F4006F04D07F4BDB6913F407
S214405530006F37D17C4BDB6913F0010F00F0C2815E
S214405540794B1B6B13F0040F33D1774B1B6B13F067
S214405550010F40F0C380744B1B6B13F0020F40F0FA
S214405560C080714B1B6B13F0080F00F0AB816E4A86
S214405570136B0093009B43F04F030093009B23F074
S21440558008030093009B1363136B13F0080FFBD1C3
S21440559005E072B6BFF35F8F0022654B1A701BB0F2
S2144055A0BDE8F08F4FF400625F4B1A62614B98473C
S2144055B0F5E7614B1B78CBB95B4B1B6BC3F30A43D8
S2144055C0082B18D0584A136B0193019B43F04F03A6
S2144055D00193019B23F004030193019B1363136B18
S2144055E013F0040FFBD1554B9847D8E7544B9847D8
S2144055F0544B9847E0E7544B03F108004A490A6D7C
S21440560003F8012F8342FAD1504B984798B9464A3F
S214405610136B0293029B43F04F030293029B23F0CB
S21440562004030293029B1363136B13F0040FFBD126
S214405630424B9847B3E7464B93F90030002B1DDBAF
S214405640394A136B0593059B43F04F030593059B1F
S21440565023F004030593059B1363136B13F0040FA9
S214405660FBD13B4BDB88002B35D00023394A1380D7
S214405670394A13800122304B1A7090E72A4A136B3E
S2144056800393039B43F04F030393039B43F0800332
S2144056900393039B1363136B13F0800FFBD0224AD4
S2144056A0136B0493049B43F04F030493049B23F033
S2144056B004030493049B1363136B13F0040FFBD192
S2144056C00023244A1380244A138002221A4B1A705D
S2144056D0224B984763E7224B984760E71F4B984713
S2144056E05DE7154B1B78012B3CD0022B04D0042BD6
S2144056F002D0124B984701E0114B98470A4A136B69
S2144057000693069B43F04F030693069B23F0020343
S2144057100693069B1363136B13F0020FFBD1094BE2
S21440572098473CE7E9484000004004407147400045
S214405730A5010020753A4000A40D00200550400009
S21440574075504000ED4F400013300020B53A400001
S21440575014300020A20D0020A00D002085504000EF
S2144057603D504000514B196BC1F30A41504B9B8949
S214405770504A15886A189342BCBF5B1B99B24C4B83
S2144057809868284471B10246484C236D02F8013BA4
S214405790131ADBB28B42F8D30D44ADB2454B1D8095
S2144057A008291AD0424B9D815B6913B1984700285F
S2144057B030D03E4A136B0893089B43F04F03089340
S2144057C0089B23F002030893089B1363136B13F0A4
S2144057D0020FFBD1384B9847E1E6354BDA88374B1A
S2144057E01B882B449A42DDDD314B9B89AB4225D04A
S2144057F02E4A136B0B930B9B43F04F030B930B9B61
S21440580023F002030B930B9B1363136B13F0020FEF
S214405810FBD1C4E62A4B9847244A136B0793079B51
S21440582043F04F030793079B23F002030793079B1E
S2144058301363136B13F0020FFBD1B0E61C4B5B698E
S21440584053B19847E8B11D491A4A0B88108803445B
S2144058500B8000231380CBE7194B9847134A136BF2
S2144058600993099B43F04F030993099B23F00203D6
S2144058700993099B136313461A6B12F0020FFBD170
S2144058808DE60F4B9847094A136B0A930A9B43F0E1
S2144058904F030A930A9B23F002030A930A9B13635F
S2144058A013461A6B12F0020FFBD178E60040044014
S2144058B014300020A00D00203D504000A20D0020D6
