S01A000066616E5F636F6E74726F6C5F73616D6432312E737265630E
S214000000084C002015F400000DF500000DF500006A
S21400001000000000000000000000000000000000DB
S2140000200000000000000000000000000DF50000C9
S21400003000000000000000000DF500000DF50000B7
S2140000400DF500000DF500000DF500000DF50000A3
S21400005039C400000DF500000DF500003D4E00000F
S2140000600DF5000005CF00001DCF000035CF0000C5
S2140000704DCF000065CF00007DCF00000DF50000DD
S2140000800DF500000DF50000191800002D180000F1
S2140000904118000055180000691800000DF5000012
S2140000A00DF500000DF500000DF500000DF5000043
S2140000B00000000010B5064C2378002B07D1054B36
S2140000C0002B02D0044800E000BF0123237010BDBF
S2140000D0FC03002000000000201E0200084B10B5A4
S2140000E0002B03D00749084800E000BF0748036814
S2140000F0002B00D110BD064B002BFBD09847F9E72C
S2140001000000000000040020201E0200201E020046
S2140001100000000080B582B000AF104B1B68002BBB
S21400012012D1EFF310837B607B68002B09D172B687
S214000130BFF35F8F0A4B00221A700A4B01221A7017
S21400014002E0084B00221A70044B1B685A1C034B33
S2140001501A60C046BD4602B080BDC04618040020E6
S214000160000000201C04002080B500AF0B4B1B686D
S2140001705A1E0A4B1A60094B1B68002B0AD1084B03
S2140001801B78DBB2002B05D0064B01221A70BFF39A
S2140001905F8F62B6C046BD4680BDC04618040020CC
S2140001A01C0400200000002080B582B000AF7860FC
S2140001B07B6880221A707B6800225A707B68012256
S2140001C09A707B680022DA70C046BD4602B080BDD9
S2140001D080B584B000AF02003960FB1D1A700C2396
S2140001E0FB181800104B98470C23FB1880221A7037
S2140001F03B681A780C23FB185A703B685A780C2315
S214000200FB189A703B689A780C23FB18DA700C235C
S214000210FA18FB1D1B7811001800044B9847C046BF
S214000220BD4604B080BDC046A9010000A103000081
S21400023080B584B000AF0200FB1D1A700F23FB18B8
S214000240FA1D1278D2091A700E23FB18FA1D1278BE
S21400025052091A700D4BBB600F23FB181B78002B3E
S2140002600FD10F23FB181B789B0010229446BC442A
S2140002706344083B1A680E23FB181B78DB01D3186F
S21400028000E000231800BD4604B080BD00440041D5
S21400029080B588B000AFF860B9607A600023FB6173
S2140002A07B68DB7801225340DBB2002B35D07B68BD
S2140002B01B78802B0BD0FB69802252021343FB6114
S2140002C07B681B781B061A00FB691343FB617B687F
S2140002D05B78002B03D07B685B78022B10D1FB6920
S2140002E0802292021343FB617B689B78002B04D02C
S2140002F0FB698022D2021343FB61FB68BA685A602E
S2140003007B685B78012B03D07B685B78022B07D178
S214000310FB69224A1340FB6102E0FB68BA685A6038
S214000320BB681B041B0CBB61BB681B0C7B61BA69FA
S214000330FB691343A022D2051A43FB689A627A69C6
S214000340FB691343D02212061A43FB689A627B6845
S214000350DB7801225340DBB2002B1AD0FA698023E7
S214000360DB0213400AD07B689B78012B03D1FB6825
S214000370BA689A6102E0FB68BA685A617B685B7883
S214000380012B03D07B685B78022B02D1FB68BA682E
S2140003909A60C046BD4608B080BDC046FFFFFBFF62
S2140003A080B584B000AF02003960FB1D1A70FB1DDB
S2140003B01B7818000A4B98470300FB60FB1D1B7850
S2140003C01F22134001229A401300BB603A68B968A6
S2140003D0FB681800034B9847C046BD4604B080BD76
S2140003E0310200009102000080B584B000AF786052
S2140003F00A4B1B68002B02D1084B094A1A60074BB0
S2140004001B68FB60054B1A687B68D218034B1A60A2
S214000410FB681800BD4604B080BDC046200400201E
S214000420084C002080B582B000AF786001235B42A4
S2140004301800BD4602B080BD80B582B000AF7860BF
S21400044039603B68802292015A6000231800BD463E
S21400045002B080BD80B582B000AF7860012318007E
S214000460BD4602B080BD80B584B000AFF860B9600C
S2140004707A6000231800BD4604B080BD80B582B007
S21400048000AF78607B68002B0CD0084B7A685A6007
S214000490064B00229A60C046044B1A6880235B0213
S2140004A01340F9D0C046BD4602B080BD10E000E063
S2140004B080B500AF00200F4B984702000E4B1A6025
S2140004C00D4B18680D4BFA229100984703001A004E
S2140004D0094B1A60084B1868084BFA229100984797
S2140004E003001A00064B1A60064B05221A60C04627
S2140004F0BD4680BD81F1000004000020819D010002
S2140005000800002010E000E080B582B000AF786000
S21400051004E0074B1B681800064B98477B685A1E7A
S2140005207A60002BF5D1C046BD4602B080BDC046FD
S214000530080000207D04000080B582B000AF78601F
S21400054004E0074B1B681800064B98477B685A1E4A
S2140005507A60002BF5D1C046BD4602B080BDC046CD
S214000560040000207D04000080B582B000AFEFF3E9
S21400057010837B607B685A425341DBB23B6072B6A5
S214000580BFF35F8F034B00221A703B681800BD460E
S21400059002B080BD0000002080B582B000AF786059
S2140005A07B685A1E9341DBB21800BD4602B080BD80
S2140005B080B582B000AF78607B681800064B98471D
S2140005C0031E05D0054B01221A70BFF35F8F62B67B
S2140005D0C046BD4602B080BD990500000000002060
S2140005E080B500AF0C4B00221A700C4B00221A701C
S2140005F00B4B01221A700B4B984703001A0001237D
S2140006005340DBB2002B01D0002302E0064B984794
S21400061003001800BD4680BD2404002028040020E6
S21400062029040020E9070000657B010080B500AFC3
S214000630024B9847C046BD4680BDC046717B010050
S214000640B0B500AF044B054A05490648064CA0471E
S21400065003001800BD46B0BD79060000200000204B
S21400066028040020240400203D08000080B500AFC8
S21400067000231800BD4680BD80B500AF0F4B5B88D9
S2140006801B0A9BB2032B15D10C4B5B88FF22134031
S2140006909BB2002B0ED1094BDB88042B0AD1074BEB
S2140006A0074A9A60054B074A1A61044B04229A814E
S2140006B0012300E000231800BD4680BDCC280020A2
S2140006C0AC0400207907000090B587B002AF7860D0
S2140006D0214B1B7801225340DBB2002B01D00023B4
S2140006E036E01E4B98470300FB601D4B402200215E
S2140006F018001C4B98471A4A7B68100019004023C4
S2140007001A00194B9847164A184B009340230021AD
S2140007108120174CA04703005A1E9341DBB20122EA
S2140007205340DBB21A1C01231340DAB20A4B1A708C
S214000730FB6818000F4B9847074B1B785A1E9341CF
S214000740DBB201225340DBB21A1C01231340DBB29A
S2140007501800BD4605B090BD2904002069050000BC
S2140007602C0400201BC20100E5C101001508000092
S214000770D9280000B105000080B500AF054B9B8965
S214000780042B04D1044B1800044B984700E0C046E5
S214000790BD4680BDCC280020AC040020017C0100B2
S2140007A080B582B000AF39601100FB1D021C1A70C4
S2140007B0BB1D0A1C1A70FB1D1B78002B09D13B6859
S2140007C0402B03D1054B1800054B9847054B98471F
S2140007D000E0C046BD4602B080BDC0466C040020A6
S2140007E0857B0100E907000090B583B002AF064A9A
S2140007F0064B0093402300210220054CA04703002F
S2140008001800BD4601B090BD6C040020A107000092
S214000810D928000080B582B000AF39601100FB1DFA
S214000820021C1A70BB1D0A1C1A70034B01221A7098
S214000830C046BD4602B080BD2904002080B584B005
S21400084000AFF860B9607A603B60354B1B785BB2EE
S214000850002B32DA324B1B781A006023134009D182
S2140008602F4B5B78062B05D17B6818002D4B9847DD
S214000870030051E02A4B1B781A0060231340202BFC
S2140008801BD1274B5B78022B07D0032B0DD0012BF7
S21400089013D13B68984703003EE0214BFA689A6004
S2140008A01F4B01229A81012336E01D4BBA689A60DD
S2140008B01B4B01229A8101232EE0194B1B785BB259
S2140008C0002B28DB164B1B781A0060231340202BC6
S2140008D021D1134B5B780A2B07D00B2B0ED0092B9C
S2140008E019D13B689847030016E00D4B5B881B0A3E
S2140008F09BB2DAB2FB681A7001230DE0084BDB8866
S214000900002B01D0002307E0054B5B88DAB2BB68FA
S2140009101A70012300E000231800BD4604B080BD15
S214000920CC2800202909000080B584B000AF78608C
S214000930254B984703000933FB60FB685B78212B47
S21400094001D000233BE0214B5B881B0A9BB2DBB245
S214000950212B13D11D4BFA689A60FB681B789AB25C
S2140009601A4BDB88181C111C8AB283B29A4200D933
S214000970011C8AB2154B9A81012320E0FB689A7904
S214000980124B5B881B0A9BB2DBB29A4216D10F4B06
S2140009907A689A60FB68DA791B7A1B0213439AB26C
S2140009A00A4BDB88181C111C8AB283B29A4200D903
S2140009B0011C8AB2054B9A81012300E0002318002F
S2140009C0BD4604B080BDC046D1090000CC2800203A
S2140009D080B500AF024B1B681800BD4680BDC04600
S2140009E0C004002080B500AF074B1B681A68064B92
S2140009F01B681B689978DB781B020B439BB2D318E5
S214000A001800BD4680BDC046BC04002080B584B03A
S214000A1000AF78600A00FB1C1A70144B984703005E
S214000A20FB607B681B781A007B689B187B6011E074
S214000A307B685B78042B12D07B685B78FA1C127894
S214000A409A4201D17B680CE07B681B781A007B68B1
S214000A509B187B60FA687B689A42E9D800E0C0463B
S214000A6000231800BD4604B080BDC046E50900005E
S214000A7080B584B000AF0200FB1D1A70BB1D0A1CB7
S214000A801A70204B1B78002B01D1002336E01E4B3A
S214000A901B681B681B79FA1D12789A4201D3002343
S214000AA02CE0194B1B681A68184B1A60184B9847AD
S214000AB00300FB601CE0154B1B685B78042B0FD112
S214000AC0124B1B689B78FA1D12789A4208D10F4B7E
S214000AD01B68DB78BA1D12789A4201D101230DE01B
S214000AE00A4B1A68094B1B681B78D218074B1A600A
S214000AF0064B1B68FA689A42DDD800231800BD46EC
S214000B0004B080BDB8040020BC040020C00400204F
S214000B10E509000080B584B000AF0200FB1D1A7026
S214000B20FB1D1B7800211800214B984703001A0074
S214000B3001235340DBB2002B01D0002334E01D4BD1
S214000B401B685A68FB1D1B789B00D3181B68BB608C
S214000B50BB68DB68984703001A00FB1D1B78110072
S214000B601800134B984703001A0001235340DBB2CA
S214000B70002B01D0002317E00F4B1B68FB60FB68BF
S214000B80052118000D4B98470300FB60FB68002BFF
S214000B9005D0FB689B781800094B9847EFE7C046DE
S214000BA0BB685B68984701231800BD4604B080BD4B
S214000BB0710A0000BC040020C00400200D0A0000DA
S214000BC07525000080B584B000AF0200FB1D1A70CA
S214000BD0BB1D0A1C1A70BB1D1A78FB1D1B78110062
S214000BE018001F4B984703001A0001235340DBB23E
S214000BF0002B01D000232EE01A4B1B68FB60FB681D
S214000C0005211800184B98470300FB60FB68002B73
S214000C1015D0FB689878FB68D978FB681A795B79F9
S214000C201B0213439BB21A00104B984703001A008E
S214000C3001235340DBB2002BE1D000230BE0C0467B
S214000C400B4B1B685A68FB1D1B789B00D3181B6850
S214000C501B68984703001800BD4604B080BDC04618
S214000C60710A0000C00400200D0A000001260000E2
S214000C70BC04002080B500AF024B9847C046BD4676
S214000C8080BDC046E533000080B582B000AF164B8D
S214000C901B78002B15D0FB1D00221A7009E0FB1DE7
S214000CA01B781800114B9847FB1D1A78FB1D013264
S214000CB01A700F4B1B681B681B79FA1D12789A4234
S214000CC0EDD3094B00221A700A4B1B8802221340F0
S214000CD09BB2002B01D0084B9847064B00221A8087
S214000CE0C046BD4602B080BDB8040020150B00000B
S214000CF0BC040020B0040020717B010080B582B0E7
S214000D0000AF174B1B78002B25D0FB1D00221A7056
S214000D1019E0144B1B685A68FB1D1B789B00D31800
S214000D201B681B69002B09D00E4B1B685A68FB1DFD
S214000D301B789B00D3181B681B699847FB1D1A7805
S214000D40FB1D01321A70074B1B681B681B79FA1DC6
S214000D5012789A42DDD3C046BD4602B080BDC0467A
S214000D60B8040020BC04002080B500AF074BDB8829
S214000D70022B01D0002305E0054B02211800054B8D
S214000D80984701231800BD4680BDC046CC280020E9
S214000D90B0040020092C000080B500AF0C4BDB88A7
S214000DA0022B01D000230FE0094B9B88DBB2180012
S214000DB0084B984703009AB2074B1A80064B02214D
S214000DC01800064B984701231800BD4680BDC04654
S214000DD0CC280020A9270000C4040020092C00000D
S214000DE080B500AF0C4BDB88002B01D000230FE052
S214000DF0094B5B88012B0AD1084B1B8802229343C0
S214000E009AB2064B1A80064B9847012300E000234F
S214000E101800BD4680BDC046CC280020B004002087
S214000E20717B010080B500AF0A4BDB88002B01D038
S214000E3000230CE0074B5B88002B07D1054B9B88F3
S214000E40DBB21800044B9847030000E000231800AC
S214000E50BD4680BDCC2800202D28000080B500AF00
S214000E600C4BDB88002B01D0002310E0094B5B887D
S214000E70012B02D0C046002309E0074B1B88022244
S214000E8013439AB2044B1A80044B98470123180068
S214000E90BD4680BDCC280020B00400207B7B01002E
S214000EA080B500AF0D4BDB88002B01D0002312E08D
S214000EB00A4B5B88002B0DD1084B9B88DBB21800D1
S214000EC0074B9847054B9B88DBB21800054B9847A5
S214000ED0030000E000231800BD4680BDCC2800209B
S214000EE005250000D527000080B500AF054B5B88C0
S214000EF0DBB27F221340DBB21800034B9847C04694
S214000F00BD4680BDCC280020C12B000080B500AFB8
S214000F10064BDB88002B01D0002303E0034B044A7A
S214000F201A6101231800BD4680BDC046CC280020AB
S214000F30E90E000080B584B000AFFB1D00221A70D9
S214000F402D4B5B881A00FF231340012B09D0022B80
S214000F500DD0002B11D1294B04211800284B98479F
S214000F600DE0FB1D19221A70264BBB6007E0FB1D27
S214000F7017221A70244BBB6001E0002337E0FB1DEC
S214000F801B78002B32D00F23FB1800221A7016E0B5
S214000F900F23FB181B780F22BA181278B9688A1824
S214000FA0127891B2194A5B00D31802330A1C1A80D1
S214000FB00F23FB181A780F23FB1801321A700F2321
S214000FC0FA18FB1D12781B789A42E1D3FB1D1B789A
S214000FD00133DBB2DB18DAB20C4B1A700B4B1B7802
S214000FE09AB20A4B11001800054B984701231800C7
S214000FF0BD4604B080BDC046CC280020B00000200E
S214001000092C0000B4000020D0000020E8000020DA
S21400101080B582B000AF394B5A88FB1D1A70374B2B
S2140010205B881B0A9BB2DBB2022B13D002DC012BBF
S21400103005D051E0032B44D00F2B2FD04CE0304B83
S2140010401A682F4B1B681B789BB2190010002D4B9B
S214001050984744E02A4B1B685B7CFA1D12789A423C
S21400106001D3002346E0264B5A68FB1D1B78DB00A5
S214001070D3181868224B5A68FB1D1B78DB00D31860
S2140010801B689A78DB781B0213439BB219001D4B32
S21400109098471A4B9B6802225A7020E0184B9B68B0
S2140010A0002B01D1002325E0154B9868144B9B6854
S2140010B09A78DB781B0213439BB21900114B9847B2
S2140010C00DE0114B984703001A0001235340DBB292
S2140010D0002B03D000230DE000230BE0C046074B97
S2140010E0DA88064B9B899A4203D2044BDA88034B74
S2140010F09A8101231800BD4602B080BDCC2800208E
S214001100A4000020092C0000350F000080B500AFB9
S214001110074BDB88012B01D0002305E0054B01219E
S2140011201800054B984701231800BD4680BDC046F1
S214001130CC280020B8040020092C000080B582B01E
S21400114000AF2A4BDB88002B01D000234AE0284B57
S2140011509847031E01D1002344E0244B5B881A0005
S214001160FF231A40234B1B685B7C9A4201DD002359
S21400117038E0214B98471D4B5B88DAB21F4B1A703C
S2140011801E4B1B78002B01D101232BE0194B5A680C
S2140011901A4B1B781A498C466344DB00D218194B4D
S2140011A01A60FB1D00221A7013E0FB1D1B7800213D
S2140011B01800154B984703001A0001235340DBB272
S2140011C0002B01D000230DE0FB1D1A78FB1D013219
S2140011D01A700C4B1B681B681B79FA1D12789A4212
S2140011E0E3D301231800BD4602B080BDCC28002002
S2140011F0ED2B0000A4000020890C0000B80400209D
S214001200FFFFFF1FBC040020C50B000080B582B0A6
S21400121000AF214BDB88012B01D0002338E01F4BA9
S2140012201B78002B01D1002332E01B4B9A88FB1D54
S2140012301A701B4B1B681B681B79FA1D12789A42A2
S21400124001D3002324E0FB1D1B7800211800154B5A
S214001250984703001A0001235340DBB2002B01D04D
S214001260002315E00E4B1B685A68FB1D1B789B007D
S214001270D3181B683B603B68DB68984703001A007E
S214001280094B1A70084B01211800084B9847012398
S2140012901800BD4602B080BDCC280020B80400204F
S2140012A0BC040020710A0000B4040020092C0000D1
S2140012B080B582B000AF174BDB88002B01D000232F
S2140012C024E0154B1B78002B01D100231EE0114BA8
S2140012D09A88FB1D1A700F4B5A88BB1D1A70FB1D8F
S2140012E01B7818000D4B984703001A000123534043
S2140012F0DBB2002B01D0002308E0BB1D1A78FB1DD3
S2140013001B7811001800064B984703001800BD46CE
S21400131002B080BDCC280020B8040020150B0000C9
S214001320C50B000080B500AF474B1B785BB2002BA7
S21400133040DA454BDB88002B01D1002381E0424B8D
S2140013401B781A001F23134014D13F4B5B78062BE3
S21400135008D0082B0AD0002B00D00BE03B4B984758
S21400136003006EE03A4B984703006AE0394B984713
S214001370030066E0344B1B781A001F231340012B32
S21400138008D1314B5B780A2B00D003E0324B9847EC
S214001390030056E02C4B1B781A001F231340022B29
S2140013A04ED1294B5B78002B00D049E02B4B984759
S2140013B0030046E0244B1B781A001F23134019D164
S2140013C0214B5B78092B14D89A00254BD3181B6841
S2140013D09F46244B9847030033E0234B984703006F
S2140013E02FE0224B984703002BE0214B9847030041
S2140013F027E0C046144B1B781A001F231340012B0E
S21400140008D1114B5B780B2B00D003E0194B9847A3
S214001410030016E00C4B1B781A001F231340022B08
S2140014200ED1094B5B78012B02D0032B04D007E0CA
S214001430114B9847030004E0104B9847030000E068
S21400144000231800BD4680BDCC280020690D000092
S214001450111000000D1100000D120000990D000083
S21400146090F801000D0F0000E10D00005D0E000079
S2140014703D110000B1120000250E0000A10E000074
S21400148080B582B000AF244B1B78002B01D100231F
S2140014903DE0224B9A88FB1D1A70214B1B681B6887
S2140014A01B79FA1D12789A4201D300232FE0FB1D08
S2140014B01B78002118001B4B984703001A000123D5
S2140014C05340DBB2002B01D0002320E0144B1B68F6
S2140014D05A68FB1D1B789B00D3181B683B603B6853
S2140014E0DB68984703001A00FB1D1B7811001800E4
S2140014F00C4B984703001A0001235340DBB2002B25
S21400150001D0002303E03B689B689847030018005F
S214001510BD4602B080BDC046B8040020CC280020DE
S214001520BC040020710A000080B582B000AF224BD8
S2140015301B78002B01D1002339E0204B9A88FB1D35
S2140015401A70FB1D00221A7028E01D4B1B685A6893
S214001550FB1D1B789B00D3181B683B603B68DB6851
S214001560984703001A00FB1D1B7811001800154B46
S214001570984703001A0001235340DBB2002B01D02A
S214001580002314E03B689B689847031E01D00123A4
S2140015900DE0FB1D1A78FB1D01321A70084B1B6804
S2140015A01B681B79FA1D12789A42CED300231800C6
S2140015B0BD4602B080BDC046B8040020CC2800203E
S2140015C0BC040020710A000080B500AF1E4B00224C
S2140015D09A811D4B00221A611B4B00225A611A4B3E
S2140015E01B785BB2002B05DA174BDB88002B01D18A
S2140015F0002326E0144B1B781A006023134005D105
S214001600124B9847031E01D001231AE00E4B1B789D
S2140016101A001F231340012B05D10D4B9847031EBC
S21400162001D001230DE0084B1B781A001F2313403E
S214001630022B05D1074B9847031E01D0012300E07B
S21400164000231800BD4680BDCC28002025130000CE
S214001650811400002915000080B584B000AF020098
S214001660FB1D1A700F23FB18FA1D1278D2091A7088
S2140016700E23FB18FA1D127852091A700D4BBB6028
S2140016800F23FB181B78002B0FD10F23FB181B789A
S2140016909B0010229446BC446344083B1A680E2301
S2140016A0FB181B78DB01D31800E000231800BD46AA
S2140016B004B080BD0044004180B582B000AF020097
S2140016C0FB1D1A70FB1D1B781800034B9847030080
S2140016D01800BD4602B080BD5916000080B582B025
S2140016E000AF78607B6800221A707B6801225A700F
S2140016F07B6800229A70C046BD4602B080BD0000DE
S21400170080B584B000AF0200FB1D1A70BB1D0A1C1A
S2140017101A70FB1D1B7818000D4B98470300FB60E2
S214001720FB1D1B781F22134001229A401300BB604A
S214001730BB1D1B78002B03D0FB68BA689A6102E0D9
S214001740FB68BA685A61C046BD4604B080BDC04654
S214001750B916000080B582B000AF3B1D18000E4BD6
S21400176098473B1D01221A703B1D19003E200B4B6B
S214001770984701213E200A4B98473B1D00221A70CD
S2140017803B1D01225A703B1D19000F20034B984742
S214001790C046BD4602B080BDDD160000D101000087
S2140017A00117000080B584B000AFF860B960FB1D7B
S2140017B01A70FB1D1A78FB6802329200B968D15085
S2140017C0FB1D1B78022B07D1FB681B7E10221343E0
S2140017D0DAB2FB681A7619E0FB1D1B78032B07D1DB
S2140017E0FB681B7E20221343DAB2FB681A760DE0F4
S2140017F0FB681B7E5AB2FB1D1B78012199400B002B
S2140018005BB213435BB2DAB2FB681A7600231800A9
S214001810BD4604B080BD000080B500AF0020024B7E
S2140018209847C046BD4680BD7D18000080B500AF15
S2140018300120024B9847C046BD4680BD7D1800007B
S21400184080B500AF0220024B9847C046BD4680BD1B
S2140018507D18000080B500AF0320024B9847C046B5
S214001860BD4680BD7D18000080B500AF0420024B49
S2140018709847C046BD4680BD7D18000080B584B040
S21400188000AF0200FB1D1A70FB1D1A78284B920051
S214001890D358FB60FB681B689B7BDBB2FA68127E42
S2140018A01340DAB2FB68597E0B23FB180A401A7005
S2140018B00B23FB181B780122134008D0FB689B689B
S2140018C0FA6810009847FB681B6801229A730B237E
S2140018D0FB181B780222134008D0FB68DB68FA6806
S2140018E010009847FB681B6802229A730B23FB18AC
S2140018F01B781022134008D0FB681B69FA6810009A
S2140019009847FB681B6810229A730B23FB181B78FA
S2140019102022134008D0FB685B69FA6810009847DD
S214001920FB681B6820229A73C046BD4604B080BD83
S214001930D026002080B582B000AF78607B68002299
S2140019401A70C046BD4602B080BD000080B582B0A9
S21400195000AF02003960FB1D1A70FB1D1B78012BBF
S2140019600AD0022B0FD0002B14D10E4B0D4A9169D2
S2140019703A680A439A610FE00A4B0A4AD1693A6804
S2140019800A43DA6108E0074B064A116A3A680A43D6
S2140019901A6201E0172300E000231800BD4602B0DB
S2140019A080BDC0460004004080B582B000AF7860BD
S2140019B07B6880221A707B6800225A707B6801223E
S2140019C09A707B680022DA70C046BD4602B080BDC1
S2140019D080B584B000AF78607B681B68FB60FB68EE
S2140019E0DB7BDBB21A00802313405A1E9341DBB226
S2140019F01800BD4604B080BD90B589B000AF7860D1
S214001A000823FB180E4A13CA13C303CA03C30023D2
S214001A10FB610DE00823FB18FA699200D2587B6838
S214001A209A4202D1FB69DBB206E0FB690133FB6137
S214001A30FB69042BEED900231800BD4609B090BD03
S214001A40B8F8010090B58DB000AFF860B9607A6064
S214001A502E23FB1800221A802D23FB1800221A7052
S214001A602C23FB1800221A702923FC18BB681800C8
S214001A70BD4B9847030023702423FB18BB4A11680C
S214001A80196012791A711823FB18B94A03CA03C3DE
S214001A9012881A802B23FB1800221A700EE02B23C4
S214001AA0FB181A78FB68023292000021D1502B23D3
S214001AB0FB181A782B23FB1801321A702B23FB18FD
S214001AC01B78032BEBD9FB6800221A76FB680022F2
S214001AD05A762923FB181A78A64B9200F968D1503B
S214001AE0FB68BA681A607B689B78082B08D12923A4
S214001AF0FB181B7803330122134001D01723C2E1E1
S214001B007B689A78FB681A71BB681B889BB21A00C0
S214001B100123134001D00523B5E1BB68DB7BDBB2B4
S214001B201A001023134001D01C23ACE1BB681B88AD
S214001B309BB21A000223134001D01C23A3E17B684A
S214001B401B7C002B17D01423FB1818008A4B9847D1
S214001B507B689B69DAB21423FB181A701423FB18EF
S214001B6001225A707B685B69DBB21422BA18110036
S214001B701800824B98477B681B7F002B17D01423D6
S214001B80FB1818007C4B98477B685B6ADAB2142314
S214001B90FB181A701423FB1801225A707B681B6A04
S214001BA0DBB21422BA1811001800744B9847292388
S214001BB0FB181A781823FB185200D35A1900022073
S214001BC06F4B98477B689B78082B0BD12923FB1813
S214001BD01B785A1C1823FB185200D35A19000220EF
S214001BE0674B98471023FB181800664B98477B688E
S214001BF01A781023FB181A702923FB181B78242246
S214001C00BA18D35C1022BA18110018005E4B984719
S214001C102923FB181B782422BA18D35C18005B4BC8
S214001C2098477B689A787B689B791343DBB29AB2B5
S214001C307B681B89134399B27B689A882E23FB180E
S214001C400A431A807B685B78002B08D02E23FB188B
S214001C502E22BA181288802109010A431A80C0462B
S214001C60FB6818004A4B9847031EF9D1BB682E2222
S214001C70BA1812881A807B685B7B002B03D02D2352
S214001C80FB1804221A707B689B7B002B07D02D2341
S214001C90FB182D22BA18127801210A431A70C04682
S214001CA0FB6818003A4B9847031EF9D1BB68FF2221
S214001CB01A712D23FB181B78002B0BD0C046FB682F
S214001CC01800334B9847031EF9D1BB682D22BA186B
S214001CD012785A712C23FB187A68927A1A702A2383
S214001CE0FB1800221A701CE02A23FB181B787A685F
S214001CF0D318DB7A002B0DD02A23FB181B78102272
S214001D009A401300D9B22C23FB182C22BA1812784A
S214001D100A431A702A23FB181A782A23FB18013262
S214001D201A702A23FB181B78012BDDD9C046FB68E6
S214001D301800174B9847031EF9D1BB682C22BA1817
S214001D4012789A71C046FB681800114B9847031E1C
S214001D50F9D1FB681B79042B1CD0082B00D16EE050
S214001D60002B49D08EE0C046F9190000CCF80100DF
S214001D70D4F80100D0260020A9190000A103000015
S214001D804D1900003519000059F200009DF20000C0
S214001D90D1190000C046FB6818003D4B9847031E4B
S214001DA0F9D17B6828229A5CBB681A74C046FB6827
S214001DB01800374B9847031EF9D17B6829229A5C96
S214001DC0BB681A75C046FB681800314B9847031E5F
S214001DD0F9D17B682A229A5CBB681A76C046FB68F3
S214001DE018002B4B9847031EF9D17B682B229A5C70
S214001DF0BB685A76002346E0C046FB681800244BB2
S214001E009847031EF9D17B681A8DBB681A82C046B4
S214001E10FB6818001E4B9847031EF9D17B685A8D45
S214001E20BB681A83C046FB681800194B9847031E08
S214001E30F9D17B689A8DBB685A83002323E0C0469D
S214001E40FB681800124B9847031EF9D17B689A6A04
S214001E50BB681A61C046FB6818000D4B9847031E06
S214001E60F9D17B68DA6ABB689A61C046FB681800DD
S214001E70074B9847031EF9D17B681A6BBB68DA617B
S214001E80002300E017231800BD460DB090BDC046E5
S214001E90D119000080B582B000AFEFF310837B60ED
S214001EA07B685A425341DBB23B6072B6BFF35F8F2A
S214001EB0034B00221A703B681800BD4602B080BD76
S214001EC00000002080B582B000AF78607B685A1EA4
S214001ED09341DBB21800BD4602B080BD80B582B02B
S214001EE000AF78607B681800064B9847031E05D045
S214001EF0054B01221A70BFF35F8F62B6C046BD461F
S214001F0002B080BDC51E00000000002080B582B073
S214001F1000AF78607B681A687B681B681B899BB279
S214001F2001218B439BB21381C046BD4602B080BDE3
S214001F3080B582B000AF78607B681B689B7A5B06D2
S214001F405B0EDBB21800BD4602B080BD80B582B025
S214001F5000AF78600A00FB1C1A707B681B68FA1CCE
S214001F601278802149420A43D2B29A72C046BD46D0
S214001F7002B080BD80B582B000AF78600A00FB1C5E
S214001F801A707B681A68FB1C1B7803210B40D9B2B9
S214001F901389081C03210140880205490B40191CBF
S214001FA0031C0B431381C046BD4602B080BDC0462D
S214001FB0FFF3FFFF80B584B000AF0200FB1D1A7070
S214001FC0FB1D1B780C4AD35CFF2B00D1FEE70B4BA6
S214001FD098470300FB60FB1D1B78074AD25C013262
S214001FE0D1B2054AD154FB681800054B9847C04645
S214001FF0BD4604B080BDC046C8260020951E000021
S214002000DD1E000080B584B000AF0200FB1D1A7014
S214002010FB1D1B780C4AD35C002B00D1FEE70B4B54
S21400202098470300FB60FB1D1B78074AD25C013A09
S214002030D1B2054AD154FB681800054B9847C046F4
S214002040BD4604B080BDC046C8260020951E0000D0
S214002050DD1E000080B500AF0C4B9B8C9BB21A00B7
S2140020602023134007D1C046084BDB68D02213401C
S214002070D02BF9D106E0C046044BDB681022134093
S214002080102BF9D1C046BD4680BDC04600080040B2
S21400209080B584B000AF0200FB1D1A700C23FB183D
S2140020A0154A12681A60154B1B78FA1D12789A4268
S2140020B01DD0FB1D1B78002B07D0FB1D1B780C22A8
S2140020C0BA18D35C18000E4B98470C4B1B78002BA5
S2140020D008D00A4B1B781A000C23FB189B5C1800D0
S2140020E0084B9847054BFA1D12781A7000E0C04658
S2140020F0BD4604B080BDC046E0F801001C050020C7
S214002100B51F00000520000080B582B000AF0200B9
S214002110FB1D1A70FB1D1B78002B03D0FB1D1B78C4
S214002120802B01D1002312E0FB1D1B780F221340E9
S2140021305B00FA1D127852B2D2B2D209D2B29B1804
S2140021409A1E13009B009B189B00034A9B181800BE
S214002150BD4602B080BDC046CC04002090B589B014
S21400216000AF78607B68BB611723FB18BA69927969
S2140021701A701723FB181B781800544B9847030057
S2140021803B610F23FB181722BA1812780F210A405A
S2140021901A700C23FB183A69128A1A800A23FB1855
S2140021A0BA6952881A803B69DA680A23FB181B88CA
S2140021B0D2183B69DA603B69DA683B699B689A42E9
S2140021C054D03B699B6899B23B69DB689AB21E2380
S2140021D0FB188A1A1A801E23FB181B883C4A934257
S2140021E00DD90C23FB181A8839483A4B110098472A
S2140021F00B009AB21E23FB1835498A1A1A803B69CF
S2140022009B7C02221340DBB2002B0ED01E23FA1852
S2140022100C23FB18128819882F4B100098470B00C8
S2140022209BB2002B01D1012300E00023DBB21A1C75
S21400223001231340DAB23B6901210A4090189A7CC8
S21400224002218A43111C021C0A439A743B695A688D
S2140022503B69DB68D2181E23FB181C880F23FB186B
S21400226019781E4823001E4CA0472BE03B699B7C38
S21400227002221340DBB2002B11D03B699A7C02216C
S2140022808A439A743B695A683B69DB68D2180F2305
S214002290FB18197811480023114CA04712E03B693F
S2140022A09A7C01218A439A743B691B68002B09D0EB
S2140022B03B691C683B69D9681723FB181B781A0012
S2140022C00020A047BD4609B090BDC04609210000C9
S2140022D0FF1F000061A001008D9E01006427002002
S2140022E0DD460000B0B588B000AF78607B68BB61A3
S2140022F01723FB18BA6992791A701723FB181B78F4
S2140023001800664B984703003B610F23FB18172203
S214002310BA1812780F210A401A700C23FB183A6973
S214002320128A1A800A23FB18BA6912881A803B6937
S2140023309B7C04221340DBB2002B19D03B695A6801
S2140023403B69DB68D4180F23FB181B78013B9A0106
S214002350534BD5183B699A680C23FB181988514BC8
S214002360100098470B001A00290020004E4B984793
S2140023703B69DA680A23FB181B88D2183B69DA60C7
S2140023803B69DA683B699B689A4203D93B699A685D
S2140023903B69DA60BB699B880A22BA1812889A429F
S2140023A065D13B69DA683B699B689A425FD03B69B6
S2140023B09B6899B23B69DB689AB21E23FB188A1A9F
S2140023C01A801E23FB181B88384A93420ED90C230A
S2140023D0FB181A883548364B110098470B009AB2FE
S2140023E01E23FB1831498A1A1A8011E01E23FA1898
S2140023F00C23FB18128819882A4B100098470B00EC
S2140024009AB21E23FB181E21791809888A1A1A8088
S2140024101E23FA180C23FB1812881B889A4216D221
S2140024203B699A7C04210A439A740F23FB181B7895
S214002430013B9A011A4BD2180C23FB181C880F2359
S214002440FB1819781B4823001B4CA04722E03B6969
S2140024505A683B69DB68D2181E23FB181C880F23BA
S214002460FB18197813482300134CA04712E03B6969
S2140024709A7C01218A439A743B691B68002B09D019
S2140024803B691C683B69D9681723FB181B781A0040
S2140024900020A047BD4608B0B0BDC04609210000D8
S2140024A0E42600208D9E0100E5C10100FF1F00000C
S2140024B061A00100642700209147000080B584B029
S2140024C000AF786039603B68FB600B23FB18FA6846
S2140024D092791A700B23FB181B785BB2002B04DA78
S2140024E03B681800054B984703E03B681800044B10
S2140024F09847C046BD4604B080BDC0465D2100007A
S214002500E522000090B585B000AF0200FB1D1A70F2
S214002510FB1D1A78144B11001800144B9847FB1D2E
S2140025201B781800124B98470300FB60FB689B7CE7
S21400253001221340DBB2002B12D0FB689A7C0121EB
S2140025408A439A74FB681B68002B0AD0FB681C68D9
S214002550FB68D968FB1D1B781A000120A04700E025
S214002560C046BD4605B090BD642700205944000013
S2140025700921000080B584B000AF0200FB1D1A7070
S2140025800823FB181800184B98470F23FB18FA1D52
S21400259012780F210A401A70FB1D1B781800134B87
S2140025A098470823FB18FA1D12781A700823FB18A0
S2140025B00022DA700823FA180D4B110018000D4B94
S2140025C098470F23FB181978094B002218000A4B6E
S2140025D09847FB1D1978064B00221800074B9847B2
S2140025E0C046BD4604B080BD393F0000052500004A
S2140025F064270020613F0000813B0000953D0000FD
S21400260090B587B000AF040008001100FB1D221C27
S2140026101A70BB1D021C1A703B1D0A1C1A800C2364
S214002620FB181800584B98470C23FB18FA1D127815
S2140026301A703B1D1B88082B04D80C23FB1800229D
S2140026405A7045E03B1D1B88102B04D80C23FB1842
S21400265001225A703CE03B1D1B88202B04D80C231B
S214002660FB1802225A7033E03B1D1B88402B04D80F
S2140026700C23FB1803225A702AE03B1D1B88802B74
S21400268004D80C23FB1804225A7021E03B1D1A883C
S21400269080235B009A4204D80C23FB1805225A704C
S2140026A016E03B1D1A8880239B009A4204D80C2310
S2140026B0FB1806225A700BE03B1D1B88334A9342D8
S2140026C004D80C23FB1807225A7001E0002357E0B9
S2140026D0FB1D1B7818002E4B984703007B617B6917
S2140026E03A1D12881A82BB1DBA1D127803210A40B1
S2140026F01A70BB1D1B78012B04D10C23FB18022279
S214002700DA7013E0BB1D1B78022B04D10C23FB18D8
S2140027100322DA700AE0BB1D1B78032B04D10C23BE
S214002720FB180422DA7001E0002329E01323FB18CB
S214002730FA1D12780F210A401A700C23FA18154B4E
S21400274011001800144B9847031E01D0002317E011
S214002750124A1323FB1819780E4813000022104C57
S214002760A047FB1D19780B4B002218000D4B98470D
S214002770FB1D1978074B012218000A4B98470123C6
S2140027801800BD4607B090BD393F0000FF030000AB
S2140027900921000064270020613F0000BD240000DE
S2140027A0013B0000F93B000080B582B000AF02009C
S2140027B0FB1D1A70FB1D1A78044B11001800044B01
S2140027C0984703001800BD4602B080BD642700206D
S2140027D0E144000080B584B000AF0200FB1D1A7013
S2140027E00F23FB18FA1D12780F210A401A700F23C8
S2140027F0FB181B78022B01D900230CE0FB1D1A786E
S214002800074B11001800074B9847FB1D1B78180054
S214002810054B984701231800BD4604B080BDC0464E
S21400282064270020554500000525000080B584B0CB
S21400283000AF0200FB1D1A700F23FB18FA1D12785A
S2140028400F210A401A700F23FB181B78022B01D9A0
S21400285000231DE0FB1D1B7818000F4B9847030054
S214002860BB60FB1D1A780D4B110018000C4B9847E7
S214002870BB689B7C01221340DBB2002B07D0BB68F1
S2140028809A7C01218A439A74BB681B689847012387
S2140028901800BD4604B080BD092100006427002052
S2140028A0B145000080B500AF074B05221A70074BF4
S2140028B080211800064B9847044B00211800054B52
S2140028C09847C046BD4680BDC60400206427002049
S2140028D055450000B145000090B589B000AFBA601C
S2140028E07B600F23FB18021C1A700E23FB180A1CB1
S2140028F01A701D23FB180F22BA1812780F210A40EF
S2140029001A701D23FB181B78022B07D80F23FB1801
S2140029101B7818009F4B9847031E01D0002334E114
S2140029200F23FB181B7818009B4B98470300BB61CE
S2140029309A4B984703007B61BB699B7C012213403E
S214002940DBB2002B05D07B691800954B9847002317
S2140029501BE1BB699A7C01210A439A747B691800C3
S2140029608F4B9847BB69BA685A60BB697A689A60A9
S214002970BB690022DA60BB693A6B1A60BB690E223B
S214002980BA18127801210A4090189A7C02218A43CC
S214002990111C021C0A439A74BB699A7C04218A4360
S2140029A09A740F23FB181B785BB2002B00DB78E0D1
S2140029B0BB699B68002B3FD0BB699A681E23FB1837
S2140029C01A801E23FB181B88764A93420DD9BB69D2
S2140029D01B8A1900734A744B100098470B009AB272
S2140029E01E23FB186F498A1A1A80BB699B7C022239
S2140029F01340DBB2002B0DD0BB69198A1E23FB18CF
S214002A001A886A4B100098470B009BB2002B01D126
S214002A10012300E00023DBB21A1C01231340DAB2C4
S214002A20BB6901210A4090189A7C02218A43111C36
S214002A30021C0A439A7423E0BB699B7C0222134063
S214002A40DBB2002B09D0BB699A7C02218A439A74B8
S214002A501E23FB1800221A8012E0BB699A7C012113
S214002A608A439A74BB691B68002B07D0BB691B6836
S214002A700F22BA181278002100209847012384E01C
S214002A80BB695A681E23FB181C881D23FB1819787F
S214002A9047482300474CA04703005A425341DBB245
S214002AA073E0BB699B68002B5DD0BB699A681E23E8
S214002AB0FB181A801E23FB181B883A4A93420ED92D
S214002AC0BB691B8A1900374A374B100098470B0022
S214002AD09AB21E23FB1833498A1A1A8010E0BB6983
S214002AE0198A1E23FB181A88304B100098470B00D3
S214002AF09AB21E23FB181E21791809888A1A1A8092
S214002B00BB691B8A1E22BA1812889A421AD2BB695F
S214002B109A7C04210A439A741D23FB181B78013BF8
S214002B209A01254BD218BB691B8A1C001D23FB1873
S214002B3019781F482300214CA04703005A425341EE
S214002B40DBB222E0BB695A681E23FB181C881D23D3
S214002B50FB18197816482300184CA04703005A4261
S214002B605341DBB211E0BB699A7C01218A439A7417
S214002B70BB691B68002B07D0BB691B680F22BA18FD
S214002B80127800210020984701231800BD4609B09E
S214002B9090BDC046A927000009210000951E000030
S214002BA0DD1E0000FF1F000061A001008D9E0100D9
S214002BB064270020DD460000E42600209147000040
S214002BC080B582B000AF0200FB1D1A70FB1D1A789C
S214002BD0044B11001800044B9847C046BD4602B08F
S214002BE080BDC046642700204D1F000080B500AFA2
S214002BF0034B1800034B984703001800BD4680BDE2
S214002C0064270020311F000080B582B000AF7860D6
S214002C100A00BB1C1A80054B7A689A60034BBA1CE4
S214002C2012889A81C046BD4602B080BDCC280020DE
S214002C3080B500AF174B1A78174B1A70154B5A7899
S214002C40154B5A70134BDB789BB21B029AB2114B92
S214002C509B789BB2D3189AB20F4B5A800D4B5B7978
S214002C609BB21B029AB20B4B1B799BB2D3189AB23B
S214002C70094B9A80074BDB799BB21B029AB2054B35
S214002C809B799BB2D3189AB2034BDA80C046BD46F6
S214002C9080BDC046E4280020CC280020B0B500AF98
S214002CA0094B03221A70094A094B11001800094BF8
S214002CB09847094B9A68064800230021074CA0470E
S214002CC0C046BD46B0BDC046C6040020E42800206D
S214002CD06427002041480000CC280020DD46000084
S214002CE090B583B000AF304B9989304B1A88BB1D26
S214002CF08A1A1A80BB1D1B88002B30D12C4B1A88D1
S214002D002A4B1B88D3189AB2294B1A80264BDA888E
S214002D10274B1B889A4203D0264B1B78002B09D0E2
S214002D20254B04221A70254A254B11001800254B06
S214002D30984735E01C4B5B69002B10D01A4B5B693B
S214002D40984703001A0001235340DBB2002B06D13C
S214002D50164B00221A80BB1D134A92891A80BB1D8F
S214002D601B88072B06D9BB1D08221A80114B002290
S214002D701A7002E00F4B01221A700B4B9B680B4A2D
S214002D8012889A18BB1D1B880D4800210E4CA047C0
S214002D90064B1A88BB1D1B88D3189AB2034B1A80A1
S214002DA0BD4603B090BDC046CC280020CA04002013
S214002DB0C80400201D050020C6040020E4280020CA
S214002DC06427002041480000DD46000090B585B02D
S214002DD000AF78607B68BB600E23FB18BA68128869
S214002DE01A80454B9B891A00444B1B8819000E23FA
S214002DF0FB181B88CB189A4207DA3F4B99893F4B42
S214002E001A880E23FB188A1A1A803B4B9B683B4A8B
S214002E10128898180E23FB181A88394B1900394B5C
S214002E209847364B1A880E23FB181B88D3189AB27D
S214002E30324B1A800E23FB181B88082B0AD12E4B08
S214002E40DB881A00304B1B8819002C4B1B88CB18CC
S214002E509A421BDC294B1A88274B9A81264B5B69C2
S214002E60002B10D0244B5B69984703001A000123FF
S214002E705340DBB2002B06D0244B05221A700020EC
S214002E80234B984735E0234B984732E01A4B9A89F4
S214002E901A4B1B889A4226D1174B5B69002B06D12A
S214002EA01A4B05221A700020194B984721E0124B46
S214002EB05B69984703001A0001235340DBB2002BDE
S214002EC006D0124B05221A700020114B984710E0CE
S214002ED00D4B1A88094B1B88D3189AB20A4B1A80D6
S214002EE0064B00221A80064A0B48082300210B4C8A
S214002EF0A047BD4605B090BDCC280020CA040020DF
S214002F00E4280020E5C10100C8040020C604002013
S214002F10D52700009D2C0000642700209147000064
S214002F2090B585B000AF786039603B68FB60294B90
S214002F301B78002B09D0284B1B69002B02D0264B90
S214002F401B699847234B00221A70FB681B88082BC6
S214002F5002D0224B98473AE0214B9847214B98479E
S214002F6003001A0001235340DBB2002B02D01B4B98
S214002F7098472CE0184B1B785BB2002B11DA1A4BE3
S214002F8000221A80194B00221A80124B02221A7055
S214002F90174A184808230021174CA047174B984794
S214002FA015E00D4BDB88002B02D1154B98470EE041
S214002FB00D4B00221A800D4B00221A80054B012271
S214002FC01A700B4A0B48082300210B4CA047BD463D
S214002FD005B090BDC6040020CC280020A52800001F
S214002FE0312C0000C9150000C8040020CA040020C7
S214002FF0E42800206427002091470000E12C000010
S2140030009D2C000080B584B000AF78607B68FB60C4
S2140030100A4B1B78012B02D1094B98470AE0074B55
S2140030201B78042B06D1FB689A79064B1100180012
S214003030054B9847C046BD4604B080BDC604002078
S2140030409D2C0000642700205545000080B584B004
S21400305000AF78607B68FB600B4B1B78022B03D1BC
S214003060094B04221A700AE0074B1B78032B06D183
S214003070FB689A79054B11001800054B9847C04627
S214003080BD4604B080BDC046C604002064270020AC
S2140030905545000080B584B000AF786039603B6865
S2140030A0FB60FB689B795BB2002B04DA3B68180078
S2140030B0054B984703E03B681800044B9847C0460A
S2140030C0BD4604B080BDC046053000004D3000004F
S2140030D080B582B000AF786039600F4B1B78012B4B
S2140030E004D13B6818000D4B984710E00A4B1B783C
S2140030F0022B02D10A4B984709E00A4B1B69002BAA
S21400310002D0084B1B699847034B00221A70C04632
S214003110BD4602B080BDC046C6040020CD2D0000CE
S214003120E12C0000CC28002090B585B000AF786078
S2140031300C23FB181800214B98470C23FB18002281
S2140031405A700C23FA187B68110018001C4B98471D
S2140031501C4A7B68110018001B4B98471B4B78686D
S214003160022200211A4CA0471A4B78680022002140
S214003170174CA047184B786801220021144CA04732
S2140031807B68022200211800144B98477B680022B7
S21400319000211800114B98477B6801220021180077
S2140031A00E4B98477B68012118000D4B98470D4B36
S2140031B000221A70C046BD4605B090BD393F0000DB
S2140031C0613F0000E428002041480000212F000055
S2140031D0013B0000D130000095300000F93B0000B4
S2140031E0751F0000C604002080B582B000AF78606E
S2140031F03960094B04211800084B9847064B0221FA
S2140032001800074B98470120064B9847064B9847EF
S214003210C046BD4602B080BD64270020AD3A00001F
S214003220513A000091200000717B010080B584B007
S21400323000AF786039603B68FB600B4B06211800D6
S2140032400A4B9847084B04211800084B9847064B32
S21400325002211800064B98470220064B9847C046A6
S214003260BD4604B080BDC04664270020AD3A0000CD
S214003270513A00009120000080B582B000AF78601F
S2140032803960034B9847C046BD4602B080BDC04675
S214003290FD0C000080B582B000AF78603960074B47
S2140032A098477B6800211800054B98477B681800F4
S2140032B0044B9847C046BD4602B080BD890C00004E
S2140032C04D1F00002931000080B582B000AF786045
S2140032D03960104B9847104B022118000F4B984747
S2140032E00D4B042118000E4B98470E4A0A4B062138
S2140032F018000D4B9847084B06211800084B9847B6
S21400330003200A4B98470A4B9847C046BD4602B072
S21400331080BDC0465520000064270020AD3A00005E
S214003320513A00002D320000013A000091200000C2
S2140033307B7B010080B500AF0320204B9847204BD5
S2140033401800204B9847204A1D4B042118001F4B9D
S21400335098471F4A1A4B002118001C4B98471D4AD5
S214003360174B01211800194B98471B4A144B022192
S2140033701800164B9847124B04211800174B984715
S2140033800F4B00211800154B98470D4B01211800D4
S214003390124B98470A4B02211800104B9847104AC8
S2140033A0074B06211800094B9847054B06211800C5
S2140033B00A4B9847C046BD4680BDC04691200000D7
S2140033C0642700200D1F0000E9310000013A0000CC
S2140033D07932000095320000C9320000513A0000F0
S2140033E02D32000080B582B000AF124B9847030024
S2140033F07B603B001800104B98473B0000229A70F9
S2140034003A000E490E4B18000E4B98470C4B18000E
S2140034100D4B98470D4B984701200D4B98470D4B89
S21400342098477B6818000C4B9847C046BD4602B0CC
S21400343080BDC046951E0000714E00000050004141
S21400344064270020994E0000094E00005520000019
S2140034509120000035330000DD1E000080B582B0EC
S21400346000AF78607B6800221A70C046BD4602B086
S21400347080BD000080B582B000AF02003960FB1D41
S2140034801A70FB1D1B78012B0AD0022B0FD0002BC5
S21400349014D10E4B0D4A91693A680A439A610FE0BF
S2140034A00A4B0A4AD1693A680A43DA6108E0074BD0
S2140034B0064A116A3A680A431A6201E0172300E0D6
S2140034C000231800BD4602B080BDC0460004004080
S2140034D080B582B000AF78607B6880221A707B6807
S2140034E000225A707B6801229A707B680022DA708C
S2140034F0C046BD4602B080BD80B582B000AF0200B7
S214003500FB1D1A70064BFA1D127811001F220A4086
S214003510012191400A001A60C046BD4602B080BD37
S21400352000E100E080B582B000AFC04B1B681B68AE
S2140035301B8C9BB2002B0AD0BC4B1B681B681B8CD9
S2140035409BB21A00BA4B10009847030000E02023F5
S2140035507B607B681F2B00D974E1B44B1B681A682C
S2140035607B6808335B01D31807331B78DBB23B60FC
S2140035703B680322134000D188E001227B689A4012
S2140035801300DB431A00AB4B1B681A40A94B1A60AA
S214003590A64B1B681A687B6808335B01D318073391
S2140035A003221A70A14B1A68AE217B68D3185B18E9
S2140035B01B781A000123134068D07B68DAB29E4B52
S2140035C01A709A4B1B681B687A6808325201D35CE3
S2140035D09B079B0FDBB2012B1ED1984A7B685B01D1
S2140035E0D3185B689B049B0C9BB21A00924B5A80C4
S2140035F0924A7B685B01D3185B681B019B0C9BB2ED
S2140036001A008D4B9A808D4A7B685B01D3185A68E6
S214003610920B92035A602CE0884A7B685B01D318B1
S2140036205B681B019B0C9BB21A00834B5A80834A33
S2140036307B685B01D3185B689B049B0C9BB21A00EB
S2140036407D4B9A807D4A7B685B01D3185A687C491B
S2140036500A405A60784B5B88002B0AD1774A7B6811
S2140036605B01D3185B689B049B0C9BB21A00724BE1
S2140036705A806E4B1A687B6802331B01D3180433DA
S2140036801A686A4B1B686C49180090473B6804220E
S214003690134014D001227B689A401300DB431A00C3
S2140036A0644B1B681A40634B1A60604B1B681A68B1
S2140036B07B6808335B01D318073304221A703B6813
S2140036C0082213403CD001227B689A401300DB435B
S2140036D01A00584B1B681A40564B1A60534B1B680F
S2140036E01A687B6808335B01D318073308221A7000
S2140036F04E4B1A68AE217B68D3185B181B781A00ED
S214003700022313401CD07B68DAB24B4B1A704B4A2C
S2140037107B685B01D3180E331B889BB2DBB21F227B
S2140037201340DAB2444B5A70404B1A687B681B0150
S214003730D31828331A683D4B1B683F49180090473A
S2140037403B68102213403AD001227B689A4013004F
S214003750DB431A00374B1B681A40364B1A60334B54
S2140037601B681A687B6808335B01D318073310227E
S2140037701A702E4B1A68AE217B68D3185B181B781C
S2140037801A00042313401AD07B68DAB22A4B1A7048
S2140037902A4A7B685B01D3185B681B019B0C9BB2B3
S2140037A01A00254B5A80214B1A687B681B01D318D8
S2140037B02C331A681D4B1B680021180090473B6885
S2140037C02022134000D112E101227B689A401300A8
S2140037D0DB431A00174B1B681A40164B1A60134B34
S2140037E01B681A687B6808335B01D31807332022EE
S2140037F01A700E4B1A68AE217B68D3185B181B78BC
S2140038001A000823134000D1F1E07B68DAB20A4BB5
S2140038101A70064B1A687B681B01D31830331A6877
S214003820024B1B68044918009047E0E02005002082
S21400383025A101003805002024050020EC280020E2
S214003840FF3F00F06C4B1B681B689B8B9BB23B607A
S2140038503B680422134013D0674B1B681B68042286
S2140038609A83654B1B68A5229B5C1A0001231340B4
S21400387006D0614B1B685A685F4B1B681800904760
S2140038803B680822134016D05C4B00221A605A4B45
S2140038901B681B6808229A83574B1B68A5229B5CF3
S2140038A01A000223134006D0534B1B689A68524BEB
S2140038B01B68180090473B684022134013D04E4BBD
S2140038C01B681B6840229A834B4B1B68A5229B5C97
S2140038D01A001023134006D0474B1B685A69464B04
S2140038E01B68180090473B682022134013D0424BB9
S2140038F01B681B6820229A833F4B1B68A5229B5C93
S2140039001A000823134006D03B4B1B681A693A4B33
S2140039101B68180090473B681022134013D0364BA4
S2140039201B681B6810229A83334B1B68A5229B5C7E
S2140039301A000423134006D02F4B1B68DA682E4B60
S2140039401B68180090473B688022134016D02B4B0C
S21400395000221A60284B1B681B6880229A83264B1D
S2140039601B68A5229B5C1A002023134006D0224B1E
S2140039701B689A69204B1B68180090473A6880239A
S2140039805B00134017D01D4B00221A601A4B1B68B1
S2140039901B68802252009A83174B1B68A5229B5CEB
S2140039A01A004023134006D0134B1B68DA69124BEB
S2140039B01B68180090473A6880239B00134016D077
S2140039C00E4B00221A600C4B1B681B68802292006C
S2140039D09A83094B1B68A5229B5C5BB2002B06DA18
S2140039E0054B1B681A6A044B1B6818009047C046B4
S2140039F0BD4602B080BDC046200500203805002028
S214003A0080B584B000AFF8607A600B23FB180A1C00
S214003A101A700B23FB181A78FB682E32920079680E
S214003A20D150FA68AA235B00D25A0B23FB181978E8
S214003A30064B4900CB5A134399B2FA68AA235B0097
S214003A40D15200231800BD4604B080BDE4F8010042
S214003A5080B582B000AF78600A00FB1C1A707B68E5
S214003A601B68FA1C1178104A49008A5A9A837A68A9
S214003A70AB235B00D25AFB1C19780B4B4900CB5A80
S214003A80134399B27A68AB235B00D1527B681B68FC
S214003A90FA1C1178044A49008A5A1A83002318002F
S214003AA0BD4602B080BDC046E4F8010080B582B0D5
S214003AB000AF78600A00FB1C1A707A68AB235B00C4
S214003AC0D35A1BB2FA1C11780C4A49008A5A12B211
S214003AD0D24312B213401BB299B27A68AB235B0092
S214003AE0D1527B681B68FA1C1178044A49008A5A2E
S214003AF09A8200231800BD4602B080BDE4F801009B
S214003B0080B584B000AFF860080011007B600B231E
S214003B10FB18021C1A700A23FB180A1C1A700B23C7
S214003B20FB1819780A23FB181B78FA688900CB184B
S214003B3034339B00D31804337A681A600B23FB18BF
S214003B401A780B23FB181978F868AC235B00411829
S214003B50CB1819780A23FB181B780848C35C0B435C
S214003B60D8B2F968AC235B008A18D318021C1A7006
S214003B7000231800BD4604B080BDC046F4F801001E
S214003B8080B582B000AF786008001100FB1C021CF4
S214003B901A70BB1C0A1C1A70FB1C1978BB1C1B78FD
S214003BA07A688900CB1834339B00D318043300227C
S214003BB01A60FB1C1A78FB1C19787868AC235B002B
S214003BC04118CB181B785BB2B91C09780948415CD0
S214003BD049B2C94349B20B405BB2D8B27968AC234C
S214003BE05B008A18D318021C1A7000231800BD4602
S214003BF002B080BDF4F8010080B584B000AF7860F4
S214003C0008001100FB1C021C1A70BB1C0A1C1A7050
S214003C100F23FB18FA1C12780F210A401A700F2384
S214003C20FB181A780F23FB1819787868B0235B0006
S214003C304118CB181978BB1C1B785548C35C0B433E
S214003C40D8B27968B0235B008A18D318021C1A70A1
S214003C50BB1C1B78002B2FD10F23FB181B78002BC7
S214003C600CD17B6819680F23FB181A780A23FF33D8
S214003C7052018A18D31803221A701DE0FB1C1B7809
S214003C805BB2002B0CDA7B6819680F23FB181A78D6
S214003C900A23FF3352018A18D31802221A700BE047
S214003CA07B6819680F23FB181A780A23FF33520122
S214003CB08A18D31801221A70BB1C1B78012B2FD12F
S214003CC00F23FB181B78002B0CD17B6819680F2379
S214003CD0FB181A780A23FF3352018A18D3180C22CD
S214003CE01A701DE0FB1C1B785BB2002B0CDA7B689D
S214003CF019680F23FB181A780A23FF3352018A1813
S214003D00D31808221A700BE07B6819680F23FB187B
S214003D101A780A23FF3352018A18D31804221A701D
S214003D20BB1C1B78022B0BD17B6819680F23FB1872
S214003D301A780A23FF3352018A18D31810221A70F1
S214003D40BB1C1B78032B1DD1FB1C1B785BB2002B06
S214003D500CDA7B6819680F23FB181A780A23FF33DE
S214003D6052018A18D31840221A700BE07B68196833
S214003D700F23FB181A780A23FF3352018A18D31828
S214003D8020221A7000231800BD4604B080BDC0462D
S214003D90F4F8010080B584B000AF78600800110028
S214003DA0FB1C021C1A70BB1C0A1C1A700F23FB1883
S214003DB0FA1C12780F210A401A700F23FB181A7883
S214003DC00F23FB1819787868B0235B004118CB18CE
S214003DD01B785BB2B91C09785648415C49B2C943A6
S214003DE049B20B405BB2D8B27968B0235B008A1840
S214003DF0D318021C1A70BB1C1B78002B2FD10F2364
S214003E00FB181B78002B0CD17B6819680F23FB1856
S214003E101A7884235B0052018A18D31803221A707A
S214003E201DE0FB1C1B785BB2002B0CDA7B68196864
S214003E300F23FB181A7884235B0052018A18D318C4
S214003E4002221A700BE07B6819680F23FB181A7899
S214003E5084235B0052018A18D31801221A70BB1CF7
S214003E601B78012B2FD10F23FB181B78002B0CD1AE
S214003E707B6819680F23FB181A7884235B005201AD
S214003E808A18D3180C221A701DE0FB1C1B785BB234
S214003E90002B0CDA7B6819680F23FB181A7884232A
S214003EA05B0052018A18D31808221A700BE07B6850
S214003EB019680F23FB181A7884235B0052018A18AE
S214003EC0D31804221A70BB1C1B78022B0BD17B68FC
S214003ED019680F23FB181A7884235B0052018A188E
S214003EE0D31810221A70BB1C1B78032B1DD1FB1C89
S214003EF01B785BB2002B0CDA7B6819680F23FB1863
S214003F001A7884235B0052018A18D31840221A704C
S214003F100BE07B6819680F23FB181A7884235B0074
S214003F2052018A18D31820221A7000231800BD46A2
S214003F3004B080BDF4F8010080B582B000AF7860B0
S214003F407B6800221A707B6800225A707B68002209
S214003F509A707B680122DA70C046BD4602B080BD0A
S214003F6090B585B000AF786039603B681A780F234B
S214003F70FB180F210A401A703B681B785BB2DBB255
S214003F80DB09DAB20E23FB181A703B68DB78042BC9
S214003F9000D900E29A00E44BD3181B689F467B6862
S214003FA01B680F22BA181278083252010021D15429
S214003FB0002349E27B681B680F22BA181278083281
S214003FC05201D35CDBB21A000723134030D17B6862
S214003FD01B680F22BA18127808325201D35CDBB283
S214003FE01A007023134023D17B681B680F22BA186F
S214003FF01278083252011121D1547B681A680F23B7
S214004000FB181B7808335B01D318053340221A705F
S2140040107B681A680F23FB181B7808335B01D318DC
S214004020043380221A703B689B78002B02D128E06C
S2140040301C2309E20F23FB1818780F23FB181B78A4
S214004040BA4A5B01D31804331B68802212061A434F
S214004050B6494301CB1804331A600F23FB181878AF
S2140040600F23FB181B78B14A5B01D31814331B6867
S214004070802212061A43AD494301CB1814331A6046
S21400408023E00F23FB1818780F23FB181B78A74A8A
S2140040905B01D31804331B685B005A08A34943012D
S2140040A0CB1804331A600F23FB1818780F23FB185D
S2140040B01B789E4A5B01D31814331B685B005A08B2
S2140040C09A494301CB1814331A600F23FB181B7848
S2140040D03A685278111C07220A40D1B2934A5B0113
S2140040E0D3185A68072001400907914802400A433E
S2140040F05A600F23FB181B783A685278111C072267
S2140041000A40D1B2894A5B01D31810335A68072097
S21400411001400907864802400A435A60002393E19B
S2140041200E23FB181B78002B30D07B681B680F22F1
S214004130BA18127808325201D35CDBB21A00702328
S214004140134021D17B681A680F23FB1819787B6807
S2140041501B680F203818007808304001C35CDBB2BB
S21400416020200343D8B20B0008335B01011C99548E
S2140041707B681A680F23FB181B7808335B01D3187B
S214004180043380221A7007E11C235DE17B681B68FC
S2140041900F22BA18127808325201D35CDBB21A002A
S2140041A00723134021D17B681A680F23FB18197860
S2140041B07B681B680F203818007808304001C35C05
S2140041C0DBB202200343D8B20B0008335B01011CAC
S2140041D099547B681A680F23FB181B7808335B0119
S2140041E0D318053340221A70D6E01C232CE10E2388
S2140041F0FB181B78002B30D07B681B680F22BA1880
S214004200127808325201D35CDBB21A0070231340D6
S21400421021D17B681A680F23FB1819787B681B6806
S2140042200F203818007808304001C35CDBB230201D
S2140042300343D8B20B0008335B01011C99547B681A
S2140042401A680F23FB181B7808335B01D318043356
S21400425080221A70A0E01C23F6E07B681B680F2201
S214004260BA18127808325201D35CDBB21A00072360
S214004270134021D17B681A680F23FB1819787B68D6
S2140042801B680F203818007808304001C35CDBB28A
S21400429003200343D8B20B0008335B01011C99547A
S2140042A07B681A680F23FB181B7808335B01D3184A
S2140042B0053340221A706FE01C23C5E00E23FB185E
S2140042C01B78002B36D07B681B680F22BA18127832
S2140042D008325201D35CDBB21A007023134021D19E
S2140042E07B681A680F23FB1819787B681B680F20F9
S2140042F03818007808304001C35CDBB24020034326
S214004300D8B20B0008335B01011C99547B681A680D
S2140043100F23FB181B7808335B01D3180433802265
S2140043201A7039E01C238FE0F8F80100EC28002012
S214004330FFFFFF8F7B681B680F22BA1812780832BF
S2140043405201D35CDBB21A000723134021D17B68ED
S2140043501A680F23FB1819787B681B680F2038181B
S214004360007808304001C35CDBB204200343D8B2B7
S2140043700B0008335B01011C99547B681A680F23F5
S214004380FB181B7808335B01D318053340221A70DC
S21400439002E01C2358E0C0460F23FB1818780E23B3
S2140043A0FB181B783A685278111C07220A40D1B2D3
S2140043B0274A4000C3181B01D3185A68072001403B
S2140043C00907244802400A435A603B689B78002B42
S2140043D01DD00F23FB181C780E23FB1818780F230C
S2140043E0FB1819780E23FB181B78194A4900CB18BE
S2140043F01B01D31804331B68802212061A43144983
S21400440063001B181B01CB1804331A601BE00F2334
S214004410FB181C780E23FB1818780F23FB18197846
S2140044200E23FB181B780A4A4900CB181B01D31829
S21400443004331B685B005A08054963001B181B0100
S214004440CB1804331A6000231800BD4605B090BD93
S214004450EC280020FFFFFF8F80B584B000AF7860A7
S2140044600A00FB1C1A700F23FB18FA1C12780F2187
S2140044700A401A70FB1C1B785BB2002B16DA7B68AE
S2140044801A680F23FB181B7808335B01D318043314
S21400449080221A707B681A680F23FB181B78083373
S2140044A05B01D318073302221A7015E07B681A687E
S2140044B00F23FB181B7808335B01D3180533402203
S2140044C01A707B681A680F23FB181B7808335B0189
S2140044D0D318073301221A70C046BD4604B080BD0B
S2140044E080B584B000AF78600A00FB1C1A700F23FA
S2140044F0FB18FA1C12780F210A401A70FB1C1B7856
S2140045005BB2002B11DA7B681A680F23FB181B7846
S21400451008335B01D31806331B78DBB21A0020235E
S21400452013405A1E9341DBB210E07B681A680F23D3
S214004530FB181B7808335B01D31806331B78DBB2F5
S2140045401A00102313405A1E9341DBB21800BD46D2
S21400455004B080BD80B584B000AF78600A00FB1C54
S2140045601A700F23FB18FA1C12780F210A401A70D3
S214004570FB1C1B785BB2002B0BDA7B681A680F23D8
S214004580FB181B7808335B01D318053320221A70FA
S2140045900AE07B681A680F23FB181B7808335B0158
S2140045A0D318053310221A70C046BD4604B080BD2D
S2140045B080B584B000AF78600A00FB1C1A700F2329
S2140045C0FB18FA1C12780F210A401A70FB1C1B7885
S2140045D05BB2002B3FDA7B681A680F23FB181B7848
S2140045E008335B01D31806331B78DBB21A0020238E
S2140045F013406FD07B681A680F23FB181B780833AC
S2140046005B01D318043320221A707B681A680F23C4
S214004610FB181B7808335B01D31807331B78DBB213
S2140046201A004023134055D07B681A680F23FB18E6
S2140046301B7808335B01D318073340221A707B6857
S2140046401A680F23FB181B7808335B01D318043352
S21400465002221A703EE07B681A680F23FB181B784C
S21400466008335B01D31806331B78DBB21A0010231D
S21400467013402FD07B681A680F23FB181B7808336B
S2140046805B01D318043310221A707B681A680F2354
S214004690FB181B7808335B01D31807331B78DBB293
S2140046A01A002023134015D07B681A680F23FB18C6
S2140046B01B7808335B01D318073320221A707B68F7
S2140046C01A680F23FB181B7808335B01D3180433D2
S2140046D001221A70C046BD4604B080BD80B586B0C3
S2140046E000AFF8607A603B600B23FB180A1C1A7058
S2140046F0FB681B680B22BA18127808325201D35C8A
S2140047005B065B0FDAB21723FB181A701723FB1829
S2140047101B78002B01D11C2332E00B23FB181B78DF
S2140047207A6819495B01CB1810331A600B23FB1803
S2140047301B78154A5B01D31810335A6813490A4090
S2140047405A600B23FB181B783A6892B29204920CBC
S21400475091B20D4A5B01D31810335A688904890C4C
S214004760920B92030A435A60FB681A680B23FB18E5
S2140047701B7808335B01D318053380221A70002398
S2140047801800BD4606B080BDEC280020FF3F00F0B4
S21400479080B586B000AFF8607A603B600B23FB18EC
S2140047A00A1C1A70FB681B680B22BA1812780832AB
S2140047B05201D35C5B075B0FDAB21723FB181A7043
S2140047C01723FB181B78002B01D11C232FE00B238B
S2140047D0FB181A787968184B5201D1500B23FB1836
S2140047E01B783A6892B29204920C91B2124A5B011C
S2140047F0D3185A688904890C8903104802400A4372
S2140048005A600B23FB181B780B4A5B01D3185A68B7
S214004810920B92035A60FB681A680B23FB181B78EE
S21400482008335B01D318043340221A7000231800A3
S214004830BD4606B080BDC046EC280020FF3F00F015
S21400484080B582B000AF786039603A680C4B1A6069
S2140048500B4B5A680B490A40802189020A435A606A
S214004860074B5A68920B92035A607B681A68822339
S2140048705B004021D15400231800BD4602B080BD25
S214004880EC280020FF3F00F080B584B000AFBD4BA1
S2140048901B681A680823FB18128C1A800823FB185A
S2140048A01B88002B55D1B74B1B681A68BB1D928B13
S2140048B01A80B44B1A68AB235B00D35ABA1D128811
S2140048C013409AB2AF4B1968AA235B00C95A3B1D26
S2140048D00A401A800023FB6037E0AB4BFA685200B0
S2140048E0D35ABA1D128813409BB2002B07D0A54B93
S2140048F01B681B68A44AF96849008A5A9A83A24B27
S214004900FA685200D35A3A1D128813409BB2002B05
S21400491018D0FB68062B0AD19C4B1B895B045B0DE9
S2140049209BB21A0080235B001A40994B1A60954B85
S2140049301B68FA682E329200D258924B1B68944934
S21400494018009047FB680133FB60FB68062BC4DD4C
S21400495050E20B23FB1800221A703BE20823FB18D8
S2140049601A880B23FB181B781A41130001221340E8
S21400497000D128E2834B1B681A680B23FB181B78B0
S21400498008335B01D31807331B78DAB2BB1D1A80D5
S2140049907C4B19680B23FB181A78B0235B008A1827
S2140049A0D3181B789BB2BA1D128813409BB21AB25A
S2140049B0744B18680B23FB181978AC235B0041185E
S2140049C0CB181B781BB213401AB23B1D1A80BB1DB6
S2140049D01B88602213405CD06A4B1B681A680B2346
S2140049E0FB181B7808335B01D31807331B78DBB240
S2140049F01A004023134015D0624B1B681A680B231D
S214004A00FB181B7808335B01D318073340221A7053
S214004A100B23FB181B78802252421343DAB25D4BFD
S214004A209A7120E0574B1B681A680B23FB181B78FB
S214004A3008335B01D31807331B78DBB21A00202338
S214004A40134010D04F4B1B681A680B23FB181B78BB
S214004A5008335B01D318073320221A704D4B0B2204
S214004A60BA1812789A713B1D1B886022134000D139
S214004A70B7E1444B1A680B23FB181B78E0211B0197
S214004A80D3185B181A683F4B1B68424918009047BA
S214004A90A7E1BB1D1B881022134038D0394B1B687A
S214004AA01A680B23FB181B7808335B01D3180733EF
S214004AB010221A70334B19680B23FB181A78B02390
S214004AC05B008A18D3181B7810221340DBB2002B29
S214004AD000D188E10B23FB181B782C4A5B01D31806
S214004AE05B689B049B0C9BB21A002A4B1A80254BD2
S214004AF01A680B23FB181B78DC211B01D3185B18E4
S214004B001A68204B1B682349180090476BE1BB1DB1
S214004B101B880322134000D18FE01A4B1B681A68CB
S214004B200B23FB181B7808335B01D31807331B785D
S214004B30DBB21A00022313402ED0124B1B681A68F1
S214004B400B23FB181B7808335B01D31807330222AC
S214004B501A700B23FB181B78802252421343DAB2DA
S214004B600C4B9A710B23FB181B78084A5B01D31871
S214004B7010335B689B049B0C9BB21A00054B5A8053
S214004B8045E0C04620050020E4F80100EC2800209F
S214004B902C05002030050020984B1B681A680B2354
S214004BA0FB181B7808335B01D31807331B78DBB27E
S214004BB01A00012313402AD0904B1B681A680B2357
S214004BC0FB181B7808335B01D318073301221A70D1
S214004BD08B4B0B22BA1812789A710B23FB181B7892
S214004BE0884A5B01D3185B689B049B0C9BB21A0037
S214004BF0834B1A800B23FB181B78824A5B01D31861
S214004C005B681B019B0C9BB21A007D4B9A803B1D78
S214004C101B880322134000D1E7E0784B1A680B2369
S214004C20FB181B780D331B01D31804331A68734B1B
S214004C301B68734918009047D7E0BB1D1B880C22E1
S214004C40134000D1BFE06D4B1B681A680B23FB189E
S214004C501B7808335B01D31807331B78DBB21A00C6
S214004C600823134047D0654B1B681A680B23FB18B4
S214004C701B7808335B01D318073308221A700B23FE
S214004C80FB181B785F4A5B01D3181A331B78DBB21C
S214004C901A000223134014D00B23FB181B780B2298
S214004CA0BA181278574952018A181A321278D2B2B4
S214004CB002218A43D1B2534A5B01D3181A330A1C25
S214004CC01A700B23FB181B78802252421343DAB269
S214004CD04B4B9A71494B1B681A680B23FB181B78C1
S214004CE008335B01D31807331B78DBB21A000223A4
S214004CF0134053D07EE0414B1B681A680B23FB1809
S214004D001B7808335B01D31807331B78DBB21A0015
S214004D100423134042D0394B1B681A680B23FB1838
S214004D201B7808335B01D318073304221A700B2351
S214004D30FB181B78334A5B01D3180A331B78DBB2A7
S214004D401A000223134014D00B23FB181B780B22E7
S214004D50BA1812782B4952018A180A321278D2B23F
S214004D6002218A43D1B2274A5B01D3180A330A1CB0
S214004D701A70234B0B22BA1812789A711F4B1B68B5
S214004D801A680B23FB181B7808335B01D31807330C
S214004D901B78DBB21A000123134028D13B1D1B8869
S214004DA00C22134025D0154B1A680B23FB181B78D2
S214004DB0D8211B01D3185B181A68104B1B681049C2
S214004DC01800904715E00B23FB181A780B23FB18E6
S214004DD001321A700B23FB181B78072B00D8BDE591
S214004DE008E0C04606E0C04604E0C04602E0C04612
S214004DF000E0C046BD4604B080BDC0462005002089
S214004E0030050020EC28002080B582B000AF786026
S214004E107B681A687B681B681B78DBB202210B4331
S214004E20DBB21370C0467B681B689B78DBB2022B34
S214004E30F9D0C046BD4602B080BD000080B500AFC8
S214004E40084B1B681B681B781B06DB0FDBB2002BAE
S214004E5002D0054B984701E0044B9847C046BD4634
S214004E6080BDC0462005002025350000894800008A
S214004E7080B582B000AF78607B6800221A707B68CD
S214004E8001225A707B6800229A707B680122DA70D1
S214004E90C046BD4602B080BD80B58CB000AFF8609D
S214004EA0B9607A60C44B00221A60C44BFA681A6074
S214004EB0FB68BA681A6020210120C14B9847182366
S214004EC0FB181800BF4B98471823FB1806221A70C9
S214004ED01823FB1819001820BB4B98471823FB18FB
S214004EE006221A701823FB1819001920B64B98478B
S214004EF01423FB181800B54B98477B689A78142340
S214004F00FB181A701423FB1819000620B04B98479C
S214004F100620B04B9847BA68137801210B431370EC
S214004F20C046BB689B78DB07DB0FDBB2002BF8D1F3
S214004F30A94AD37803218B43191C02230B43D37051
S214004F40A54AD3780C218B43191C08230B43D37036
S214004F50A24B1B685B0B1F2213407B627B6A1F2BD6
S214004F6001D105237B627B6ADBB21A1C1F23134028
S214004F70D9B2BA68138D081C1F21014088019849D0
S214004F800B40191C031C0B431385944B1B689B0C8E
S214004F901F2213403B623B6A1F2B01D11D233B623D
S214004FA03B6ADBB21A1C1F231340D9B2BA68138DB2
S214004FB0081C1F2108401F218B43191C031C0B4390
S214004FC01385864B1B68DB0D07221340FB61FB69CC
S214004FD0072B01D10323FB61FB69DBB21A1C0723F5
S214004FE01340D9B2BA68138D081C07210140080384
S214004FF07C490B40191C031C0B4313857B681978EE
S214005000BA681378C8017F210B40191C031C0B4398
S21400501013707B685978BA681378012001408800BD
S21400502004218B43191C031C0B4313706E4ABB6888
S2140050305A627B68DB78012B06D1FB681A681389F5
S2140050400C218B4313810CE07B68DB78002B08D1A6
S214005050FB681A6813890C218B43191C04230B4325
S214005060138180235A00604B002118005F4B98473D
S2140050700023FB6209E0FA68FB6A9B00D31804333E
S21400508000221A60FB6A0133FB62FB6A072BF2D927
S2140050900023FB6216E00023BB620DE0FA68FB6AA1
S2140050A09900BB6ACB1808339B00D3180433002240
S2140050B01A60BB6A0133BB62BB6A032BEED9FB6A7C
S2140050C00133FB62FB6A072BE5D9FB68A4220021AB
S2140050D09954FB68A522002199540023FB6210E036
S2140050E0FA68A621FB6AD3185B1800221A70FA68C1
S2140050F0AE21FB6AD3185B1800221A70FB6A0133D4
S214005100FB62FB6A072BEBD90023FB6208E0FB6817
S214005110FA6A2E3292000021D150FB6A0133FB62FC
S214005120FB6A062BF3D90023FB6216E00023BB6262
S2140051300DE0FA68FB6A9900BB6ACB1834339B0013
S214005140D318043300221A60BB6A0133BB62BB6A01
S214005150032BEED9FB6A0133FB62FB6A072BE5D90A
S214005160FA68AA235B000021D152FA68AB235B00E1
S2140051700021D1520023BB6212E0F968AC235B0029
S214005180BA6A8A18D31800221A70F968B0235B002E
S214005190BA6A8A18D31800221A70BB6A0133BB6237
S2140051A0BB6A072BE9D90720114B98470023180044
S2140051B0BD460CB080BDC046380500202005002046
S2140051C075340000D1340000A10300005D340000F7
S2140051D059F200009DF2000000500041246080005B
S2140051E03FF8FFFFFF8FFFFFEC2800201BC20100E7
S2140051F0F934000080B582B000AF78607B6800228A
S2140052001A70C046BD4602B080BD000080B582B0B0
S21400521000AF02003960FB1D1A70FB1D1B78012BC6
S2140052200AD0022B0FD0002B14D10E4B0D4A9169D9
S2140052303A680A439A610FE00A4B0A4AD1693A680B
S2140052400A43DA6108E0074B064A116A3A680A43DD
S2140052501A6201E0172300E000231800BD4602B0E2
S21400526080BDC0460004004080B584B000AF7860C2
S2140052707B681B68FB60FB689B7ADBB25BB2002B2B
S21400528001DA012300E000231800BD4604B080BD0B
S21400529080B584B000AF78607B681B68FB60C04652
S2140052A07B681800074B9847031EF9D1FB681B88DC
S2140052B09BB2022213439AB2FB681A80C046BD46D0
S2140052C004B080BD6952000080B584B000AF78603D
S2140052D07B681B68FB60C0467B6818000A4B9847D3
S2140052E0031EF9D1FB68C1229A71FB68C1221A72AB
S2140052F0FB681B889BB2022293439AB2FB681A8013
S214005300C046BD4604B080BD6952000080B584B07A
S21400531000AF78607B681B68FB607B6818000A4BF0
S2140053209847C0467B681800084B9847031EF9D17B
S214005330FB681B889BB2012213439AB2FB681A8053
S214005340C046BD4604B080BDC95200006952000088
S21400535080B584B000AF786039607B681B68BB603E
S2140053603B681A88BB681A803B689B78002B3AD04B
S214005370012B00D06CE0BB681B889AB2BB681A8011
S2140053803B68DB78002B07D0BB681B889BB280226B
S21400539013439AB2BB681A800F23FB1800221A70B8
S2140053A01BE0C0467B681800334B9847031EF9D1B4
S2140053B00F23FB181A783B6802329200D1580F234D
S2140053C0FB181A787B6818002C4B98470F23FB189D
S2140053D01A780F23FB1801321A700F23FB181B785C
S2140053E0002BDED036E0BB681B889BB2042213433A
S2140053F09AB2BB681A803B68DB78002B01D0172373
S21400540036E00E23FB1800221A701BE0C0467B68AD
S2140054101800194B9847031EF9D10E23FB181A786B
S2140054203B6802329200D1580E23FB181A787B682C
S2140054301800124B98470E23FB181A780E23FB18F9
S21400544001321A700E23FB181B78012BDED901E0FF
S21400545017230DE03B681B79002B08D0BB685B88E0
S2140054609BB28022D20113439AB2BB685A800023B3
S2140054701800BD4604B080BD695200000D560000FD
S21400548080B586B000AFF860B9607A60FB68BA682D
S2140054901A6020210020174B98471423FB18180089
S2140054A0154B98471423FB1802221A701423FB1876
S2140054B019000420114B98470420114B9847FB68AD
S2140054C01800104B98477B689A78FB681A717B68BF
S2140054D01A79FB685A710C4BFA681A607A68FB688E
S2140054E011001800094B984703001800BD4606B087
S2140054F080BDC0460D520000F551000059F2000074
S2140055009DF200000D530000EC29002051530000CE
S21400551080B584B000AF786039607B681B68FB603C
S214005520C0467B681800104B9847031EF9D17B686D
S2140055301B79002B05D0012B0ED1FB683A681A6147
S2140055400CE03B68094A934201D9172307E03B6801
S2140055509AB2FB681A8201E0172300E000231800C5
S214005560BD4604B080BDC04669520000FFFF000083
S21400557080B584B000AF78607B681B68BB607B68D2
S2140055805B7901225340DBB2002B0AD0BB681C4A71
S2140055905A80C0467B6818001A4B9847031EF9D1FC
S2140055A016E0BB685B889BB21A008023DB011340C1
S2140055B00ED1BB685B889BB2134A13439AB2BB6892
S2140055C05A80C0467B6818000E4B9847031EF9D1D8
S2140055D07B681B79002B05D0012B08D1BB681B69A3
S2140055E0FB6007E0BB681B8A9BB2FB6002E00023FF
S2140055F0FB60C046FB681800BD4604B080BDC046D0
S2140056000080FFFF6952000000C0FFFF80B586B033
S21400561000AFF860B960FB1D1A70FB681B687B6101
S214005620C046FB6818001A4B9847031EF9D1FB6862
S2140056301B79002B0FD0012B22D1FB1D1B78012BD1
S21400564001D917231FE0FB1D1A787B6906329200EA
S214005650B968D15016E0FB1D1B78022B01D9172321
S21400566011E0BB680B4A934201D917230BE0FB1DE0
S2140056701A78BB6899B27B690C325200D15201E0AD
S2140056801A2300E000231800BD4606B080BDC046C1
S21400569069520000FFFF000080B582B000AF78605E
S2140056A07B6800221A70C046BD4602B080BD00006E
S2140056B080B582B000AF02003960FB1D1A70FB1D7A
S2140056C01B78012B0AD0022B0FD0002B14D10E4BC7
S2140056D00D4A91693A680A439A610FE00A4B0A4AF2
S2140056E0D1693A680A43DA6108E0074B064A116A4C
S2140056F03A680A431A6201E0172300E00023180004
S214005700BD4602B080BDC0460004004080B582B0F1
S21400571000AF78607B6880221A707B6800225A701F
S2140057207B6801229A707B680022DA70C046BD460C
S21400573002B080BD80B500AF054B9B78DBB21A0087
S214005740022313405A1E9341DBB21800BD4680BDAB
S2140057500020004180B584B000AF78607B681B688D
S214005760FB60FB68DB69072213405A1E9341DBB2DD
S2140057701800BD4604B080BD80B582B000AF78602A
S214005780C0467B681800044B9847031EF9D1C046F4
S214005790BD4602B080BDC0465557000080B584B0F7
S2140057A000AF78607B681B68FB607B681800094B5D
S2140057B09847FB6883221A75FB6883221A76FB6873
S2140057C01B68022293431A00FB681A60C046BD4657
S2140057D004B080BD79570000F0B597B000AF78618F
S2140057E039610023FB6300233B650023FB643B23F6
S2140057F010229446BC44634400221A707B691B68DE
S214005800BB637B691B687B6323231022BA18D418FA
S2140058107B6B1800C04B9847030023700C231022A4
S2140058209446BC4463441800BC4B98473B69DB690C
S2140058307B643B691B6A3B647B6C002B06D17B6BED
S21400584000211800B64B984703007B647B6CDAB2E5
S2140058500C2310218C46BC4463441A700C2310227F
S2140058609446BC44634402225A707B6C1B0CDBB229
S2140058700C2210218C46BC44624411001800A94B2F
S21400588098473B6C002B06D17B6B01211800A44B7C
S214005890984703003B643B6CDAB20C2310218C461D
S2140058A0BC4463441A700C2310229446BC446344E0
S2140058B002225A703B6C1B0CDBB20C2210218C4669
